{
	"sample.sol": {
		"ownable": {
			"abi": [
				{
					"inputs": [],
					"stateMutability": "nonpayable",
					"type": "constructor"
				},
				{
					"inputs": [
						{
							"internalType": "string",
							"name": "message",
							"type": "string"
						}
					],
					"name": "anyOneCanAccess",
					"outputs": [],
					"stateMutability": "nonpayable",
					"type": "function"
				},
				{
					"inputs": [],
					"name": "onlyOwnerCanAccess",
					"outputs": [],
					"stateMutability": "nonpayable",
					"type": "function"
				},
				{
					"inputs": [],
					"name": "owner",
					"outputs": [
						{
							"internalType": "address",
							"name": "",
							"type": "address"
						}
					],
					"stateMutability": "view",
					"type": "function"
				},
				{
					"inputs": [],
					"name": "serviceFee",
					"outputs": [
						{
							"internalType": "uint256",
							"name": "",
							"type": "uint256"
						}
					],
					"stateMutability": "view",
					"type": "function"
				},
				{
					"inputs": [
						{
							"internalType": "address",
							"name": "_newOwner",
							"type": "address"
						}
					],
					"name": "setOwner",
					"outputs": [],
					"stateMutability": "nonpayable",
					"type": "function"
				},
				{
					"inputs": [
						{
							"internalType": "address",
							"name": "",
							"type": "address"
						}
					],
					"name": "userMessages",
					"outputs": [
						{
							"internalType": "string",
							"name": "",
							"type": "string"
						}
					],
					"stateMutability": "view",
					"type": "function"
				}
			],
			"devdoc": {
				"kind": "dev",
				"methods": {},
				"version": 1
			},
			"evm": {
				"assembly": "    /* \"sample.sol\":60:898  contract ownable {... */\n  mstore(0x40, 0x80)\n    /* \"sample.sol\":198:291  constructor() {... */\n  callvalue\n  dup1\n  iszero\n  tag_1\n  jumpi\n  revert(0x00, 0x00)\ntag_1:\n  pop\n    /* \"sample.sol\":231:241  msg.sender */\n  caller\n    /* \"sample.sol\":223:228  owner */\n  0x00\n  0x00\n    /* \"sample.sol\":223:241  owner = msg.sender */\n  0x0100\n  exp\n  dup2\n  sload\n  dup2\n  0xffffffffffffffffffffffffffffffffffffffff\n  mul\n  not\n  and\n  swap1\n  dup4\n  0xffffffffffffffffffffffffffffffffffffffff\n  and\n  mul\n  or\n  swap1\n  sstore\n  pop\n    /* \"sample.sol\":265:272  1 ether */\n  0x0de0b6b3a7640000\n    /* \"sample.sol\":252:262  serviceFee */\n  0x01\n    /* \"sample.sol\":252:272  serviceFee = 1 ether */\n  dup2\n  swap1\n  sstore\n  pop\n    /* \"sample.sol\":60:898  contract ownable {... */\n  dataSize(sub_0)\n  dup1\n  dataOffset(sub_0)\n  0x00\n  codecopy\n  0x00\n  return\nstop\n\nsub_0: assembly {\n        /* \"sample.sol\":60:898  contract ownable {... */\n      mstore(0x40, 0x80)\n      callvalue\n      dup1\n      iszero\n      tag_1\n      jumpi\n      revert(0x00, 0x00)\n    tag_1:\n      pop\n      jumpi(tag_2, lt(calldatasize, 0x04))\n      shr(0xe0, calldataload(0x00))\n      dup1\n      0x13af4035\n      eq\n      tag_3\n      jumpi\n      dup1\n      0x6cd947ee\n      eq\n      tag_4\n      jumpi\n      dup1\n      0x76f1c0c8\n      eq\n      tag_5\n      jumpi\n      dup1\n      0x8abdf5aa\n      eq\n      tag_6\n      jumpi\n      dup1\n      0x8da5cb5b\n      eq\n      tag_7\n      jumpi\n      dup1\n      0xfe34bc31\n      eq\n      tag_8\n      jumpi\n    tag_2:\n      revert(0x00, 0x00)\n        /* \"sample.sol\":400:552  function setOwner(address _newOwner) public onlyOwner {... */\n    tag_3:\n      tag_9\n      0x04\n      dup1\n      calldatasize\n      sub\n      dup2\n      add\n      swap1\n      tag_10\n      swap2\n      swap1\n      tag_11\n      jump\t// in\n    tag_10:\n      tag_12\n      jump\t// in\n    tag_9:\n      stop\n        /* \"sample.sol\":143:189  mapping(address => string) public userMessages */\n    tag_4:\n      tag_13\n      0x04\n      dup1\n      calldatasize\n      sub\n      dup2\n      add\n      swap1\n      tag_14\n      swap2\n      swap1\n      tag_11\n      jump\t// in\n    tag_14:\n      tag_15\n      jump\t// in\n    tag_13:\n      mload(0x40)\n      tag_16\n      swap2\n      swap1\n      tag_17\n      jump\t// in\n    tag_16:\n      mload(0x40)\n      dup1\n      swap2\n      sub\n      swap1\n      return\n        /* \"sample.sol\":560:718  function onlyOwnerCanAccess() public onlyOwner {... */\n    tag_5:\n      tag_18\n      tag_19\n      jump\t// in\n    tag_18:\n      stop\n        /* \"sample.sol\":111:136  uint256 public serviceFee */\n    tag_6:\n      tag_20\n      tag_21\n      jump\t// in\n    tag_20:\n      mload(0x40)\n      tag_22\n      swap2\n      swap1\n      tag_23\n      jump\t// in\n    tag_22:\n      mload(0x40)\n      dup1\n      swap2\n      sub\n      swap1\n      return\n        /* \"sample.sol\":84:104  address public owner */\n    tag_7:\n      tag_24\n      tag_25\n      jump\t// in\n    tag_24:\n      mload(0x40)\n      tag_26\n      swap2\n      swap1\n      tag_27\n      jump\t// in\n    tag_26:\n      mload(0x40)\n      dup1\n      swap2\n      sub\n      swap1\n      return\n        /* \"sample.sol\":726:895  function anyOneCanAccess(string memory message) public {... */\n    tag_8:\n      tag_28\n      0x04\n      dup1\n      calldatasize\n      sub\n      dup2\n      add\n      swap1\n      tag_29\n      swap2\n      swap1\n      tag_30\n      jump\t// in\n    tag_29:\n      tag_31\n      jump\t// in\n    tag_28:\n      stop\n        /* \"sample.sol\":400:552  function setOwner(address _newOwner) public onlyOwner {... */\n    tag_12:\n        /* \"sample.sol\":353:358  owner */\n      0x00\n      0x00\n      swap1\n      sload\n      swap1\n      0x0100\n      exp\n      swap1\n      div\n      0xffffffffffffffffffffffffffffffffffffffff\n      and\n        /* \"sample.sol\":339:358  msg.sender == owner */\n      0xffffffffffffffffffffffffffffffffffffffff\n      and\n        /* \"sample.sol\":339:349  msg.sender */\n      caller\n        /* \"sample.sol\":339:358  msg.sender == owner */\n      0xffffffffffffffffffffffffffffffffffffffff\n      and\n      eq\n        /* \"sample.sol\":331:372  require(msg.sender == owner, \"not owner\") */\n      tag_33\n      jumpi\n      mload(0x40)\n      0x08c379a000000000000000000000000000000000000000000000000000000000\n      dup2\n      mstore\n      0x04\n      add\n      tag_34\n      swap1\n      tag_35\n      jump\t// in\n    tag_34:\n      mload(0x40)\n      dup1\n      swap2\n      sub\n      swap1\n      revert\n    tag_33:\n        /* \"sample.sol\":494:495  0 */\n      0x00\n        /* \"sample.sol\":473:496  _newOwner != address(0) */\n      0xffffffffffffffffffffffffffffffffffffffff\n      and\n        /* \"sample.sol\":473:482  _newOwner */\n      dup2\n        /* \"sample.sol\":473:496  _newOwner != address(0) */\n      0xffffffffffffffffffffffffffffffffffffffff\n      and\n      sub\n        /* \"sample.sol\":465:516  require(_newOwner != address(0), \"invalid address\") */\n      tag_37\n      jumpi\n      mload(0x40)\n      0x08c379a000000000000000000000000000000000000000000000000000000000\n      dup2\n      mstore\n      0x04\n      add\n      tag_38\n      swap1\n      tag_39\n      jump\t// in\n    tag_38:\n      mload(0x40)\n      dup1\n      swap2\n      sub\n      swap1\n      revert\n    tag_37:\n        /* \"sample.sol\":535:544  _newOwner */\n      dup1\n        /* \"sample.sol\":527:532  owner */\n      0x00\n      0x00\n        /* \"sample.sol\":527:544  owner = _newOwner */\n      0x0100\n      exp\n      dup2\n      sload\n      dup2\n      0xffffffffffffffffffffffffffffffffffffffff\n      mul\n      not\n      and\n      swap1\n      dup4\n      0xffffffffffffffffffffffffffffffffffffffff\n      and\n      mul\n      or\n      swap1\n      sstore\n      pop\n        /* \"sample.sol\":400:552  function setOwner(address _newOwner) public onlyOwner {... */\n      pop\n      jump\t// out\n        /* \"sample.sol\":143:189  mapping(address => string) public userMessages */\n    tag_15:\n      mstore(0x20, 0x02)\n      dup1\n      0x00\n      mstore\n      keccak256(0x00, 0x40)\n      0x00\n      swap2\n      pop\n      swap1\n      pop\n      dup1\n      sload\n      tag_40\n      swap1\n      tag_41\n      jump\t// in\n    tag_40:\n      dup1\n      0x1f\n      add\n      0x20\n      dup1\n      swap2\n      div\n      mul\n      0x20\n      add\n      mload(0x40)\n      swap1\n      dup2\n      add\n      0x40\n      mstore\n      dup1\n      swap3\n      swap2\n      swap1\n      dup2\n      dup2\n      mstore\n      0x20\n      add\n      dup3\n      dup1\n      sload\n      tag_42\n      swap1\n      tag_41\n      jump\t// in\n    tag_42:\n      dup1\n      iszero\n      tag_43\n      jumpi\n      dup1\n      0x1f\n      lt\n      tag_44\n      jumpi\n      0x0100\n      dup1\n      dup4\n      sload\n      div\n      mul\n      dup4\n      mstore\n      swap2\n      0x20\n      add\n      swap2\n      jump(tag_43)\n    tag_44:\n      dup3\n      add\n      swap2\n      swap1\n      0x00\n      mstore\n      keccak256(0x00, 0x20)\n      swap1\n    tag_45:\n      dup2\n      sload\n      dup2\n      mstore\n      swap1\n      0x01\n      add\n      swap1\n      0x20\n      add\n      dup1\n      dup4\n      gt\n      tag_45\n      jumpi\n      dup3\n      swap1\n      sub\n      0x1f\n      and\n      dup3\n      add\n      swap2\n    tag_43:\n      pop\n      pop\n      pop\n      pop\n      pop\n      dup2\n      jump\t// out\n        /* \"sample.sol\":560:718  function onlyOwnerCanAccess() public onlyOwner {... */\n    tag_19:\n        /* \"sample.sol\":353:358  owner */\n      0x00\n      0x00\n      swap1\n      sload\n      swap1\n      0x0100\n      exp\n      swap1\n      div\n      0xffffffffffffffffffffffffffffffffffffffff\n      and\n        /* \"sample.sol\":339:358  msg.sender == owner */\n      0xffffffffffffffffffffffffffffffffffffffff\n      and\n        /* \"sample.sol\":339:349  msg.sender */\n      caller\n        /* \"sample.sol\":339:358  msg.sender == owner */\n      0xffffffffffffffffffffffffffffffffffffffff\n      and\n      eq\n        /* \"sample.sol\":331:372  require(msg.sender == owner, \"not owner\") */\n      tag_47\n      jumpi\n      mload(0x40)\n      0x08c379a000000000000000000000000000000000000000000000000000000000\n      dup2\n      mstore\n      0x04\n      add\n      tag_48\n      swap1\n      tag_35\n      jump\t// in\n    tag_48:\n      mload(0x40)\n      dup1\n      swap2\n      sub\n      swap1\n      revert\n    tag_47:\n        /* \"sample.sol\":700:710  0.05 ether */\n      0xb1a2bc2ec50000\n        /* \"sample.sol\":687:697  serviceFee */\n      0x01\n        /* \"sample.sol\":687:710  serviceFee = 0.05 ether */\n      dup2\n      swap1\n      sstore\n      pop\n        /* \"sample.sol\":560:718  function onlyOwnerCanAccess() public onlyOwner {... */\n      jump\t// out\n        /* \"sample.sol\":111:136  uint256 public serviceFee */\n    tag_21:\n      sload(0x01)\n      dup2\n      jump\t// out\n        /* \"sample.sol\":84:104  address public owner */\n    tag_25:\n      0x00\n      0x00\n      swap1\n      sload\n      swap1\n      0x0100\n      exp\n      swap1\n      div\n      0xffffffffffffffffffffffffffffffffffffffff\n      and\n      dup2\n      jump\t// out\n        /* \"sample.sol\":726:895  function anyOneCanAccess(string memory message) public {... */\n    tag_31:\n        /* \"sample.sol\":880:887  message */\n      dup1\n        /* \"sample.sol\":853:865  userMessages */\n      0x02\n        /* \"sample.sol\":853:877  userMessages[msg.sender] */\n      0x00\n        /* \"sample.sol\":866:876  msg.sender */\n      caller\n        /* \"sample.sol\":853:877  userMessages[msg.sender] */\n      0xffffffffffffffffffffffffffffffffffffffff\n      and\n      0xffffffffffffffffffffffffffffffffffffffff\n      and\n      dup2\n      mstore\n      0x20\n      add\n      swap1\n      dup2\n      mstore\n      0x20\n      add\n      0x00\n      keccak256\n        /* \"sample.sol\":853:887  userMessages[msg.sender] = message */\n      swap1\n      dup2\n      tag_51\n      swap2\n      swap1\n      tag_52\n      jump\t// in\n    tag_51:\n      pop\n        /* \"sample.sol\":726:895  function anyOneCanAccess(string memory message) public {... */\n      pop\n      jump\t// out\n        /* \"#utility.yul\":7:82   */\n    tag_53:\n        /* \"#utility.yul\":40:46   */\n      0x00\n        /* \"#utility.yul\":73:75   */\n      0x40\n        /* \"#utility.yul\":67:76   */\n      mload\n        /* \"#utility.yul\":57:76   */\n      swap1\n      pop\n        /* \"#utility.yul\":7:82   */\n      swap1\n      jump\t// out\n        /* \"#utility.yul\":88:205   */\n    tag_54:\n        /* \"#utility.yul\":197:198   */\n      0x00\n        /* \"#utility.yul\":194:195   */\n      0x00\n        /* \"#utility.yul\":187:199   */\n      revert\n        /* \"#utility.yul\":211:328   */\n    tag_55:\n        /* \"#utility.yul\":320:321   */\n      0x00\n        /* \"#utility.yul\":317:318   */\n      0x00\n        /* \"#utility.yul\":310:322   */\n      revert\n        /* \"#utility.yul\":334:460   */\n    tag_56:\n        /* \"#utility.yul\":371:378   */\n      0x00\n        /* \"#utility.yul\":411:453   */\n      0xffffffffffffffffffffffffffffffffffffffff\n        /* \"#utility.yul\":404:409   */\n      dup3\n        /* \"#utility.yul\":400:454   */\n      and\n        /* \"#utility.yul\":389:454   */\n      swap1\n      pop\n        /* \"#utility.yul\":334:460   */\n      swap2\n      swap1\n      pop\n      jump\t// out\n        /* \"#utility.yul\":466:562   */\n    tag_57:\n        /* \"#utility.yul\":503:510   */\n      0x00\n        /* \"#utility.yul\":532:556   */\n      tag_103\n        /* \"#utility.yul\":550:555   */\n      dup3\n        /* \"#utility.yul\":532:556   */\n      tag_56\n      jump\t// in\n    tag_103:\n        /* \"#utility.yul\":521:556   */\n      swap1\n      pop\n        /* \"#utility.yul\":466:562   */\n      swap2\n      swap1\n      pop\n      jump\t// out\n        /* \"#utility.yul\":568:690   */\n    tag_58:\n        /* \"#utility.yul\":641:665   */\n      tag_105\n        /* \"#utility.yul\":659:664   */\n      dup2\n        /* \"#utility.yul\":641:665   */\n      tag_57\n      jump\t// in\n    tag_105:\n        /* \"#utility.yul\":634:639   */\n      dup2\n        /* \"#utility.yul\":631:666   */\n      eq\n        /* \"#utility.yul\":621:684   */\n      tag_106\n      jumpi\n        /* \"#utility.yul\":680:681   */\n      0x00\n        /* \"#utility.yul\":677:678   */\n      0x00\n        /* \"#utility.yul\":670:682   */\n      revert\n        /* \"#utility.yul\":621:684   */\n    tag_106:\n        /* \"#utility.yul\":568:690   */\n      pop\n      jump\t// out\n        /* \"#utility.yul\":696:835   */\n    tag_59:\n        /* \"#utility.yul\":742:747   */\n      0x00\n        /* \"#utility.yul\":780:786   */\n      dup2\n        /* \"#utility.yul\":767:787   */\n      calldataload\n        /* \"#utility.yul\":758:787   */\n      swap1\n      pop\n        /* \"#utility.yul\":796:829   */\n      tag_108\n        /* \"#utility.yul\":823:828   */\n      dup2\n        /* \"#utility.yul\":796:829   */\n      tag_58\n      jump\t// in\n    tag_108:\n        /* \"#utility.yul\":696:835   */\n      swap3\n      swap2\n      pop\n      pop\n      jump\t// out\n        /* \"#utility.yul\":841:1170   */\n    tag_11:\n        /* \"#utility.yul\":900:906   */\n      0x00\n        /* \"#utility.yul\":949:951   */\n      0x20\n        /* \"#utility.yul\":937:946   */\n      dup3\n        /* \"#utility.yul\":928:935   */\n      dup5\n        /* \"#utility.yul\":924:947   */\n      sub\n        /* \"#utility.yul\":920:952   */\n      slt\n        /* \"#utility.yul\":917:1036   */\n      iszero\n      tag_110\n      jumpi\n        /* \"#utility.yul\":955:1034   */\n      tag_111\n      tag_54\n      jump\t// in\n    tag_111:\n        /* \"#utility.yul\":917:1036   */\n    tag_110:\n        /* \"#utility.yul\":1075:1076   */\n      0x00\n        /* \"#utility.yul\":1100:1153   */\n      tag_112\n        /* \"#utility.yul\":1145:1152   */\n      dup5\n        /* \"#utility.yul\":1136:1142   */\n      dup3\n        /* \"#utility.yul\":1125:1134   */\n      dup6\n        /* \"#utility.yul\":1121:1143   */\n      add\n        /* \"#utility.yul\":1100:1153   */\n      tag_59\n      jump\t// in\n    tag_112:\n        /* \"#utility.yul\":1090:1153   */\n      swap2\n      pop\n        /* \"#utility.yul\":1046:1163   */\n      pop\n        /* \"#utility.yul\":841:1170   */\n      swap3\n      swap2\n      pop\n      pop\n      jump\t// out\n        /* \"#utility.yul\":1176:1275   */\n    tag_60:\n        /* \"#utility.yul\":1228:1234   */\n      0x00\n        /* \"#utility.yul\":1262:1267   */\n      dup2\n        /* \"#utility.yul\":1256:1268   */\n      mload\n        /* \"#utility.yul\":1246:1268   */\n      swap1\n      pop\n        /* \"#utility.yul\":1176:1275   */\n      swap2\n      swap1\n      pop\n      jump\t// out\n        /* \"#utility.yul\":1281:1450   */\n    tag_61:\n        /* \"#utility.yul\":1365:1376   */\n      0x00\n        /* \"#utility.yul\":1399:1405   */\n      dup3\n        /* \"#utility.yul\":1394:1397   */\n      dup3\n        /* \"#utility.yul\":1387:1406   */\n      mstore\n        /* \"#utility.yul\":1439:1443   */\n      0x20\n        /* \"#utility.yul\":1434:1437   */\n      dup3\n        /* \"#utility.yul\":1430:1444   */\n      add\n        /* \"#utility.yul\":1415:1444   */\n      swap1\n      pop\n        /* \"#utility.yul\":1281:1450   */\n      swap3\n      swap2\n      pop\n      pop\n      jump\t// out\n        /* \"#utility.yul\":1456:1595   */\n    tag_62:\n        /* \"#utility.yul\":1545:1551   */\n      dup3\n        /* \"#utility.yul\":1540:1543   */\n      dup2\n        /* \"#utility.yul\":1535:1538   */\n      dup4\n        /* \"#utility.yul\":1529:1552   */\n      mcopy\n        /* \"#utility.yul\":1586:1587   */\n      0x00\n        /* \"#utility.yul\":1577:1583   */\n      dup4\n        /* \"#utility.yul\":1572:1575   */\n      dup4\n        /* \"#utility.yul\":1568:1584   */\n      add\n        /* \"#utility.yul\":1561:1588   */\n      mstore\n        /* \"#utility.yul\":1456:1595   */\n      pop\n      pop\n      pop\n      jump\t// out\n        /* \"#utility.yul\":1601:1703   */\n    tag_63:\n        /* \"#utility.yul\":1642:1648   */\n      0x00\n        /* \"#utility.yul\":1693:1695   */\n      0x1f\n        /* \"#utility.yul\":1689:1696   */\n      not\n        /* \"#utility.yul\":1684:1686   */\n      0x1f\n        /* \"#utility.yul\":1677:1682   */\n      dup4\n        /* \"#utility.yul\":1673:1687   */\n      add\n        /* \"#utility.yul\":1669:1697   */\n      and\n        /* \"#utility.yul\":1659:1697   */\n      swap1\n      pop\n        /* \"#utility.yul\":1601:1703   */\n      swap2\n      swap1\n      pop\n      jump\t// out\n        /* \"#utility.yul\":1709:2086   */\n    tag_64:\n        /* \"#utility.yul\":1797:1800   */\n      0x00\n        /* \"#utility.yul\":1825:1864   */\n      tag_118\n        /* \"#utility.yul\":1858:1863   */\n      dup3\n        /* \"#utility.yul\":1825:1864   */\n      tag_60\n      jump\t// in\n    tag_118:\n        /* \"#utility.yul\":1880:1951   */\n      tag_119\n        /* \"#utility.yul\":1944:1950   */\n      dup2\n        /* \"#utility.yul\":1939:1942   */\n      dup6\n        /* \"#utility.yul\":1880:1951   */\n      tag_61\n      jump\t// in\n    tag_119:\n        /* \"#utility.yul\":1873:1951   */\n      swap4\n      pop\n        /* \"#utility.yul\":1960:2025   */\n      tag_120\n        /* \"#utility.yul\":2018:2024   */\n      dup2\n        /* \"#utility.yul\":2013:2016   */\n      dup6\n        /* \"#utility.yul\":2006:2010   */\n      0x20\n        /* \"#utility.yul\":1999:2004   */\n      dup7\n        /* \"#utility.yul\":1995:2011   */\n      add\n        /* \"#utility.yul\":1960:2025   */\n      tag_62\n      jump\t// in\n    tag_120:\n        /* \"#utility.yul\":2050:2079   */\n      tag_121\n        /* \"#utility.yul\":2072:2078   */\n      dup2\n        /* \"#utility.yul\":2050:2079   */\n      tag_63\n      jump\t// in\n    tag_121:\n        /* \"#utility.yul\":2045:2048   */\n      dup5\n        /* \"#utility.yul\":2041:2080   */\n      add\n        /* \"#utility.yul\":2034:2080   */\n      swap2\n      pop\n        /* \"#utility.yul\":1801:2086   */\n      pop\n        /* \"#utility.yul\":1709:2086   */\n      swap3\n      swap2\n      pop\n      pop\n      jump\t// out\n        /* \"#utility.yul\":2092:2405   */\n    tag_17:\n        /* \"#utility.yul\":2205:2209   */\n      0x00\n        /* \"#utility.yul\":2243:2245   */\n      0x20\n        /* \"#utility.yul\":2232:2241   */\n      dup3\n        /* \"#utility.yul\":2228:2246   */\n      add\n        /* \"#utility.yul\":2220:2246   */\n      swap1\n      pop\n        /* \"#utility.yul\":2292:2301   */\n      dup2\n        /* \"#utility.yul\":2286:2290   */\n      dup2\n        /* \"#utility.yul\":2282:2302   */\n      sub\n        /* \"#utility.yul\":2278:2279   */\n      0x00\n        /* \"#utility.yul\":2267:2276   */\n      dup4\n        /* \"#utility.yul\":2263:2280   */\n      add\n        /* \"#utility.yul\":2256:2303   */\n      mstore\n        /* \"#utility.yul\":2320:2398   */\n      tag_123\n        /* \"#utility.yul\":2393:2397   */\n      dup2\n        /* \"#utility.yul\":2384:2390   */\n      dup5\n        /* \"#utility.yul\":2320:2398   */\n      tag_64\n      jump\t// in\n    tag_123:\n        /* \"#utility.yul\":2312:2398   */\n      swap1\n      pop\n        /* \"#utility.yul\":2092:2405   */\n      swap3\n      swap2\n      pop\n      pop\n      jump\t// out\n        /* \"#utility.yul\":2411:2488   */\n    tag_65:\n        /* \"#utility.yul\":2448:2455   */\n      0x00\n        /* \"#utility.yul\":2477:2482   */\n      dup2\n        /* \"#utility.yul\":2466:2482   */\n      swap1\n      pop\n        /* \"#utility.yul\":2411:2488   */\n      swap2\n      swap1\n      pop\n      jump\t// out\n        /* \"#utility.yul\":2494:2612   */\n    tag_66:\n        /* \"#utility.yul\":2581:2605   */\n      tag_126\n        /* \"#utility.yul\":2599:2604   */\n      dup2\n        /* \"#utility.yul\":2581:2605   */\n      tag_65\n      jump\t// in\n    tag_126:\n        /* \"#utility.yul\":2576:2579   */\n      dup3\n        /* \"#utility.yul\":2569:2606   */\n      mstore\n        /* \"#utility.yul\":2494:2612   */\n      pop\n      pop\n      jump\t// out\n        /* \"#utility.yul\":2618:2840   */\n    tag_23:\n        /* \"#utility.yul\":2711:2715   */\n      0x00\n        /* \"#utility.yul\":2749:2751   */\n      0x20\n        /* \"#utility.yul\":2738:2747   */\n      dup3\n        /* \"#utility.yul\":2734:2752   */\n      add\n        /* \"#utility.yul\":2726:2752   */\n      swap1\n      pop\n        /* \"#utility.yul\":2762:2833   */\n      tag_128\n        /* \"#utility.yul\":2830:2831   */\n      0x00\n        /* \"#utility.yul\":2819:2828   */\n      dup4\n        /* \"#utility.yul\":2815:2832   */\n      add\n        /* \"#utility.yul\":2806:2812   */\n      dup5\n        /* \"#utility.yul\":2762:2833   */\n      tag_66\n      jump\t// in\n    tag_128:\n        /* \"#utility.yul\":2618:2840   */\n      swap3\n      swap2\n      pop\n      pop\n      jump\t// out\n        /* \"#utility.yul\":2846:2964   */\n    tag_67:\n        /* \"#utility.yul\":2933:2957   */\n      tag_130\n        /* \"#utility.yul\":2951:2956   */\n      dup2\n        /* \"#utility.yul\":2933:2957   */\n      tag_57\n      jump\t// in\n    tag_130:\n        /* \"#utility.yul\":2928:2931   */\n      dup3\n        /* \"#utility.yul\":2921:2958   */\n      mstore\n        /* \"#utility.yul\":2846:2964   */\n      pop\n      pop\n      jump\t// out\n        /* \"#utility.yul\":2970:3192   */\n    tag_27:\n        /* \"#utility.yul\":3063:3067   */\n      0x00\n        /* \"#utility.yul\":3101:3103   */\n      0x20\n        /* \"#utility.yul\":3090:3099   */\n      dup3\n        /* \"#utility.yul\":3086:3104   */\n      add\n        /* \"#utility.yul\":3078:3104   */\n      swap1\n      pop\n        /* \"#utility.yul\":3114:3185   */\n      tag_132\n        /* \"#utility.yul\":3182:3183   */\n      0x00\n        /* \"#utility.yul\":3171:3180   */\n      dup4\n        /* \"#utility.yul\":3167:3184   */\n      add\n        /* \"#utility.yul\":3158:3164   */\n      dup5\n        /* \"#utility.yul\":3114:3185   */\n      tag_67\n      jump\t// in\n    tag_132:\n        /* \"#utility.yul\":2970:3192   */\n      swap3\n      swap2\n      pop\n      pop\n      jump\t// out\n        /* \"#utility.yul\":3198:3315   */\n    tag_68:\n        /* \"#utility.yul\":3307:3308   */\n      0x00\n        /* \"#utility.yul\":3304:3305   */\n      0x00\n        /* \"#utility.yul\":3297:3309   */\n      revert\n        /* \"#utility.yul\":3321:3438   */\n    tag_69:\n        /* \"#utility.yul\":3430:3431   */\n      0x00\n        /* \"#utility.yul\":3427:3428   */\n      0x00\n        /* \"#utility.yul\":3420:3432   */\n      revert\n        /* \"#utility.yul\":3444:3624   */\n    tag_70:\n        /* \"#utility.yul\":3492:3569   */\n      0x4e487b7100000000000000000000000000000000000000000000000000000000\n        /* \"#utility.yul\":3489:3490   */\n      0x00\n        /* \"#utility.yul\":3482:3570   */\n      mstore\n        /* \"#utility.yul\":3589:3593   */\n      0x41\n        /* \"#utility.yul\":3586:3587   */\n      0x04\n        /* \"#utility.yul\":3579:3594   */\n      mstore\n        /* \"#utility.yul\":3613:3617   */\n      0x24\n        /* \"#utility.yul\":3610:3611   */\n      0x00\n        /* \"#utility.yul\":3603:3618   */\n      revert\n        /* \"#utility.yul\":3630:3911   */\n    tag_71:\n        /* \"#utility.yul\":3713:3740   */\n      tag_137\n        /* \"#utility.yul\":3735:3739   */\n      dup3\n        /* \"#utility.yul\":3713:3740   */\n      tag_63\n      jump\t// in\n    tag_137:\n        /* \"#utility.yul\":3705:3711   */\n      dup2\n        /* \"#utility.yul\":3701:3741   */\n      add\n        /* \"#utility.yul\":3843:3849   */\n      dup2\n        /* \"#utility.yul\":3831:3841   */\n      dup2\n        /* \"#utility.yul\":3828:3850   */\n      lt\n        /* \"#utility.yul\":3807:3825   */\n      0xffffffffffffffff\n        /* \"#utility.yul\":3795:3805   */\n      dup3\n        /* \"#utility.yul\":3792:3826   */\n      gt\n        /* \"#utility.yul\":3789:3851   */\n      or\n        /* \"#utility.yul\":3786:3874   */\n      iszero\n      tag_138\n      jumpi\n        /* \"#utility.yul\":3854:3872   */\n      tag_139\n      tag_70\n      jump\t// in\n    tag_139:\n        /* \"#utility.yul\":3786:3874   */\n    tag_138:\n        /* \"#utility.yul\":3894:3904   */\n      dup1\n        /* \"#utility.yul\":3890:3892   */\n      0x40\n        /* \"#utility.yul\":3883:3905   */\n      mstore\n        /* \"#utility.yul\":3673:3911   */\n      pop\n        /* \"#utility.yul\":3630:3911   */\n      pop\n      pop\n      jump\t// out\n        /* \"#utility.yul\":3917:4046   */\n    tag_72:\n        /* \"#utility.yul\":3951:3957   */\n      0x00\n        /* \"#utility.yul\":3978:3998   */\n      tag_141\n      tag_53\n      jump\t// in\n    tag_141:\n        /* \"#utility.yul\":3968:3998   */\n      swap1\n      pop\n        /* \"#utility.yul\":4007:4040   */\n      tag_142\n        /* \"#utility.yul\":4035:4039   */\n      dup3\n        /* \"#utility.yul\":4027:4033   */\n      dup3\n        /* \"#utility.yul\":4007:4040   */\n      tag_71\n      jump\t// in\n    tag_142:\n        /* \"#utility.yul\":3917:4046   */\n      swap2\n      swap1\n      pop\n      jump\t// out\n        /* \"#utility.yul\":4052:4360   */\n    tag_73:\n        /* \"#utility.yul\":4114:4118   */\n      0x00\n        /* \"#utility.yul\":4204:4222   */\n      0xffffffffffffffff\n        /* \"#utility.yul\":4196:4202   */\n      dup3\n        /* \"#utility.yul\":4193:4223   */\n      gt\n        /* \"#utility.yul\":4190:4246   */\n      iszero\n      tag_144\n      jumpi\n        /* \"#utility.yul\":4226:4244   */\n      tag_145\n      tag_70\n      jump\t// in\n    tag_145:\n        /* \"#utility.yul\":4190:4246   */\n    tag_144:\n        /* \"#utility.yul\":4264:4293   */\n      tag_146\n        /* \"#utility.yul\":4286:4292   */\n      dup3\n        /* \"#utility.yul\":4264:4293   */\n      tag_63\n      jump\t// in\n    tag_146:\n        /* \"#utility.yul\":4256:4293   */\n      swap1\n      pop\n        /* \"#utility.yul\":4348:4352   */\n      0x20\n        /* \"#utility.yul\":4342:4346   */\n      dup2\n        /* \"#utility.yul\":4338:4353   */\n      add\n        /* \"#utility.yul\":4330:4353   */\n      swap1\n      pop\n        /* \"#utility.yul\":4052:4360   */\n      swap2\n      swap1\n      pop\n      jump\t// out\n        /* \"#utility.yul\":4366:4514   */\n    tag_74:\n        /* \"#utility.yul\":4464:4470   */\n      dup3\n        /* \"#utility.yul\":4459:4462   */\n      dup2\n        /* \"#utility.yul\":4454:4457   */\n      dup4\n        /* \"#utility.yul\":4441:4471   */\n      calldatacopy\n        /* \"#utility.yul\":4505:4506   */\n      0x00\n        /* \"#utility.yul\":4496:4502   */\n      dup4\n        /* \"#utility.yul\":4491:4494   */\n      dup4\n        /* \"#utility.yul\":4487:4503   */\n      add\n        /* \"#utility.yul\":4480:4507   */\n      mstore\n        /* \"#utility.yul\":4366:4514   */\n      pop\n      pop\n      pop\n      jump\t// out\n        /* \"#utility.yul\":4520:4945   */\n    tag_75:\n        /* \"#utility.yul\":4598:4603   */\n      0x00\n        /* \"#utility.yul\":4623:4689   */\n      tag_149\n        /* \"#utility.yul\":4639:4688   */\n      tag_150\n        /* \"#utility.yul\":4681:4687   */\n      dup5\n        /* \"#utility.yul\":4639:4688   */\n      tag_73\n      jump\t// in\n    tag_150:\n        /* \"#utility.yul\":4623:4689   */\n      tag_72\n      jump\t// in\n    tag_149:\n        /* \"#utility.yul\":4614:4689   */\n      swap1\n      pop\n        /* \"#utility.yul\":4712:4718   */\n      dup3\n        /* \"#utility.yul\":4705:4710   */\n      dup2\n        /* \"#utility.yul\":4698:4719   */\n      mstore\n        /* \"#utility.yul\":4750:4754   */\n      0x20\n        /* \"#utility.yul\":4743:4748   */\n      dup2\n        /* \"#utility.yul\":4739:4755   */\n      add\n        /* \"#utility.yul\":4788:4791   */\n      dup5\n        /* \"#utility.yul\":4779:4785   */\n      dup5\n        /* \"#utility.yul\":4774:4777   */\n      dup5\n        /* \"#utility.yul\":4770:4786   */\n      add\n        /* \"#utility.yul\":4767:4792   */\n      gt\n        /* \"#utility.yul\":4764:4876   */\n      iszero\n      tag_151\n      jumpi\n        /* \"#utility.yul\":4795:4874   */\n      tag_152\n      tag_69\n      jump\t// in\n    tag_152:\n        /* \"#utility.yul\":4764:4876   */\n    tag_151:\n        /* \"#utility.yul\":4885:4939   */\n      tag_153\n        /* \"#utility.yul\":4932:4938   */\n      dup5\n        /* \"#utility.yul\":4927:4930   */\n      dup3\n        /* \"#utility.yul\":4922:4925   */\n      dup6\n        /* \"#utility.yul\":4885:4939   */\n      tag_74\n      jump\t// in\n    tag_153:\n        /* \"#utility.yul\":4604:4945   */\n      pop\n        /* \"#utility.yul\":4520:4945   */\n      swap4\n      swap3\n      pop\n      pop\n      pop\n      jump\t// out\n        /* \"#utility.yul\":4965:5305   */\n    tag_76:\n        /* \"#utility.yul\":5021:5026   */\n      0x00\n        /* \"#utility.yul\":5070:5073   */\n      dup3\n        /* \"#utility.yul\":5063:5067   */\n      0x1f\n        /* \"#utility.yul\":5055:5061   */\n      dup4\n        /* \"#utility.yul\":5051:5068   */\n      add\n        /* \"#utility.yul\":5047:5074   */\n      slt\n        /* \"#utility.yul\":5037:5159   */\n      tag_155\n      jumpi\n        /* \"#utility.yul\":5078:5157   */\n      tag_156\n      tag_68\n      jump\t// in\n    tag_156:\n        /* \"#utility.yul\":5037:5159   */\n    tag_155:\n        /* \"#utility.yul\":5195:5201   */\n      dup2\n        /* \"#utility.yul\":5182:5202   */\n      calldataload\n        /* \"#utility.yul\":5220:5299   */\n      tag_157\n        /* \"#utility.yul\":5295:5298   */\n      dup5\n        /* \"#utility.yul\":5287:5293   */\n      dup3\n        /* \"#utility.yul\":5280:5284   */\n      0x20\n        /* \"#utility.yul\":5272:5278   */\n      dup7\n        /* \"#utility.yul\":5268:5285   */\n      add\n        /* \"#utility.yul\":5220:5299   */\n      tag_75\n      jump\t// in\n    tag_157:\n        /* \"#utility.yul\":5211:5299   */\n      swap2\n      pop\n        /* \"#utility.yul\":5027:5305   */\n      pop\n        /* \"#utility.yul\":4965:5305   */\n      swap3\n      swap2\n      pop\n      pop\n      jump\t// out\n        /* \"#utility.yul\":5311:5820   */\n    tag_30:\n        /* \"#utility.yul\":5380:5386   */\n      0x00\n        /* \"#utility.yul\":5429:5431   */\n      0x20\n        /* \"#utility.yul\":5417:5426   */\n      dup3\n        /* \"#utility.yul\":5408:5415   */\n      dup5\n        /* \"#utility.yul\":5404:5427   */\n      sub\n        /* \"#utility.yul\":5400:5432   */\n      slt\n        /* \"#utility.yul\":5397:5516   */\n      iszero\n      tag_159\n      jumpi\n        /* \"#utility.yul\":5435:5514   */\n      tag_160\n      tag_54\n      jump\t// in\n    tag_160:\n        /* \"#utility.yul\":5397:5516   */\n    tag_159:\n        /* \"#utility.yul\":5583:5584   */\n      0x00\n        /* \"#utility.yul\":5572:5581   */\n      dup3\n        /* \"#utility.yul\":5568:5585   */\n      add\n        /* \"#utility.yul\":5555:5586   */\n      calldataload\n        /* \"#utility.yul\":5613:5631   */\n      0xffffffffffffffff\n        /* \"#utility.yul\":5605:5611   */\n      dup2\n        /* \"#utility.yul\":5602:5632   */\n      gt\n        /* \"#utility.yul\":5599:5716   */\n      iszero\n      tag_161\n      jumpi\n        /* \"#utility.yul\":5635:5714   */\n      tag_162\n      tag_55\n      jump\t// in\n    tag_162:\n        /* \"#utility.yul\":5599:5716   */\n    tag_161:\n        /* \"#utility.yul\":5740:5803   */\n      tag_163\n        /* \"#utility.yul\":5795:5802   */\n      dup5\n        /* \"#utility.yul\":5786:5792   */\n      dup3\n        /* \"#utility.yul\":5775:5784   */\n      dup6\n        /* \"#utility.yul\":5771:5793   */\n      add\n        /* \"#utility.yul\":5740:5803   */\n      tag_76\n      jump\t// in\n    tag_163:\n        /* \"#utility.yul\":5730:5803   */\n      swap2\n      pop\n        /* \"#utility.yul\":5526:5813   */\n      pop\n        /* \"#utility.yul\":5311:5820   */\n      swap3\n      swap2\n      pop\n      pop\n      jump\t// out\n        /* \"#utility.yul\":5826:5985   */\n    tag_77:\n        /* \"#utility.yul\":5966:5977   */\n      0x6e6f74206f776e65720000000000000000000000000000000000000000000000\n        /* \"#utility.yul\":5962:5963   */\n      0x00\n        /* \"#utility.yul\":5954:5960   */\n      dup3\n        /* \"#utility.yul\":5950:5964   */\n      add\n        /* \"#utility.yul\":5943:5978   */\n      mstore\n        /* \"#utility.yul\":5826:5985   */\n      pop\n      jump\t// out\n        /* \"#utility.yul\":5991:6356   */\n    tag_78:\n        /* \"#utility.yul\":6133:6136   */\n      0x00\n        /* \"#utility.yul\":6154:6220   */\n      tag_166\n        /* \"#utility.yul\":6218:6219   */\n      0x09\n        /* \"#utility.yul\":6213:6216   */\n      dup4\n        /* \"#utility.yul\":6154:6220   */\n      tag_61\n      jump\t// in\n    tag_166:\n        /* \"#utility.yul\":6147:6220   */\n      swap2\n      pop\n        /* \"#utility.yul\":6229:6322   */\n      tag_167\n        /* \"#utility.yul\":6318:6321   */\n      dup3\n        /* \"#utility.yul\":6229:6322   */\n      tag_77\n      jump\t// in\n    tag_167:\n        /* \"#utility.yul\":6347:6349   */\n      0x20\n        /* \"#utility.yul\":6342:6345   */\n      dup3\n        /* \"#utility.yul\":6338:6350   */\n      add\n        /* \"#utility.yul\":6331:6350   */\n      swap1\n      pop\n        /* \"#utility.yul\":5991:6356   */\n      swap2\n      swap1\n      pop\n      jump\t// out\n        /* \"#utility.yul\":6362:6781   */\n    tag_35:\n        /* \"#utility.yul\":6528:6532   */\n      0x00\n        /* \"#utility.yul\":6566:6568   */\n      0x20\n        /* \"#utility.yul\":6555:6564   */\n      dup3\n        /* \"#utility.yul\":6551:6569   */\n      add\n        /* \"#utility.yul\":6543:6569   */\n      swap1\n      pop\n        /* \"#utility.yul\":6615:6624   */\n      dup2\n        /* \"#utility.yul\":6609:6613   */\n      dup2\n        /* \"#utility.yul\":6605:6625   */\n      sub\n        /* \"#utility.yul\":6601:6602   */\n      0x00\n        /* \"#utility.yul\":6590:6599   */\n      dup4\n        /* \"#utility.yul\":6586:6603   */\n      add\n        /* \"#utility.yul\":6579:6626   */\n      mstore\n        /* \"#utility.yul\":6643:6774   */\n      tag_169\n        /* \"#utility.yul\":6769:6773   */\n      dup2\n        /* \"#utility.yul\":6643:6774   */\n      tag_78\n      jump\t// in\n    tag_169:\n        /* \"#utility.yul\":6635:6774   */\n      swap1\n      pop\n        /* \"#utility.yul\":6362:6781   */\n      swap2\n      swap1\n      pop\n      jump\t// out\n        /* \"#utility.yul\":6787:6952   */\n    tag_79:\n        /* \"#utility.yul\":6927:6944   */\n      0x696e76616c696420616464726573730000000000000000000000000000000000\n        /* \"#utility.yul\":6923:6924   */\n      0x00\n        /* \"#utility.yul\":6915:6921   */\n      dup3\n        /* \"#utility.yul\":6911:6925   */\n      add\n        /* \"#utility.yul\":6904:6945   */\n      mstore\n        /* \"#utility.yul\":6787:6952   */\n      pop\n      jump\t// out\n        /* \"#utility.yul\":6958:7324   */\n    tag_80:\n        /* \"#utility.yul\":7100:7103   */\n      0x00\n        /* \"#utility.yul\":7121:7188   */\n      tag_172\n        /* \"#utility.yul\":7185:7187   */\n      0x0f\n        /* \"#utility.yul\":7180:7183   */\n      dup4\n        /* \"#utility.yul\":7121:7188   */\n      tag_61\n      jump\t// in\n    tag_172:\n        /* \"#utility.yul\":7114:7188   */\n      swap2\n      pop\n        /* \"#utility.yul\":7197:7290   */\n      tag_173\n        /* \"#utility.yul\":7286:7289   */\n      dup3\n        /* \"#utility.yul\":7197:7290   */\n      tag_79\n      jump\t// in\n    tag_173:\n        /* \"#utility.yul\":7315:7317   */\n      0x20\n        /* \"#utility.yul\":7310:7313   */\n      dup3\n        /* \"#utility.yul\":7306:7318   */\n      add\n        /* \"#utility.yul\":7299:7318   */\n      swap1\n      pop\n        /* \"#utility.yul\":6958:7324   */\n      swap2\n      swap1\n      pop\n      jump\t// out\n        /* \"#utility.yul\":7330:7749   */\n    tag_39:\n        /* \"#utility.yul\":7496:7500   */\n      0x00\n        /* \"#utility.yul\":7534:7536   */\n      0x20\n        /* \"#utility.yul\":7523:7532   */\n      dup3\n        /* \"#utility.yul\":7519:7537   */\n      add\n        /* \"#utility.yul\":7511:7537   */\n      swap1\n      pop\n        /* \"#utility.yul\":7583:7592   */\n      dup2\n        /* \"#utility.yul\":7577:7581   */\n      dup2\n        /* \"#utility.yul\":7573:7593   */\n      sub\n        /* \"#utility.yul\":7569:7570   */\n      0x00\n        /* \"#utility.yul\":7558:7567   */\n      dup4\n        /* \"#utility.yul\":7554:7571   */\n      add\n        /* \"#utility.yul\":7547:7594   */\n      mstore\n        /* \"#utility.yul\":7611:7742   */\n      tag_175\n        /* \"#utility.yul\":7737:7741   */\n      dup2\n        /* \"#utility.yul\":7611:7742   */\n      tag_80\n      jump\t// in\n    tag_175:\n        /* \"#utility.yul\":7603:7742   */\n      swap1\n      pop\n        /* \"#utility.yul\":7330:7749   */\n      swap2\n      swap1\n      pop\n      jump\t// out\n        /* \"#utility.yul\":7755:7935   */\n    tag_81:\n        /* \"#utility.yul\":7803:7880   */\n      0x4e487b7100000000000000000000000000000000000000000000000000000000\n        /* \"#utility.yul\":7800:7801   */\n      0x00\n        /* \"#utility.yul\":7793:7881   */\n      mstore\n        /* \"#utility.yul\":7900:7904   */\n      0x22\n        /* \"#utility.yul\":7897:7898   */\n      0x04\n        /* \"#utility.yul\":7890:7905   */\n      mstore\n        /* \"#utility.yul\":7924:7928   */\n      0x24\n        /* \"#utility.yul\":7921:7922   */\n      0x00\n        /* \"#utility.yul\":7914:7929   */\n      revert\n        /* \"#utility.yul\":7941:8261   */\n    tag_41:\n        /* \"#utility.yul\":7985:7991   */\n      0x00\n        /* \"#utility.yul\":8022:8023   */\n      0x02\n        /* \"#utility.yul\":8016:8020   */\n      dup3\n        /* \"#utility.yul\":8012:8024   */\n      div\n        /* \"#utility.yul\":8002:8024   */\n      swap1\n      pop\n        /* \"#utility.yul\":8069:8070   */\n      0x01\n        /* \"#utility.yul\":8063:8067   */\n      dup3\n        /* \"#utility.yul\":8059:8071   */\n      and\n        /* \"#utility.yul\":8090:8108   */\n      dup1\n        /* \"#utility.yul\":8080:8161   */\n      tag_178\n      jumpi\n        /* \"#utility.yul\":8146:8150   */\n      0x7f\n        /* \"#utility.yul\":8138:8144   */\n      dup3\n        /* \"#utility.yul\":8134:8151   */\n      and\n        /* \"#utility.yul\":8124:8151   */\n      swap2\n      pop\n        /* \"#utility.yul\":8080:8161   */\n    tag_178:\n        /* \"#utility.yul\":8208:8210   */\n      0x20\n        /* \"#utility.yul\":8200:8206   */\n      dup3\n        /* \"#utility.yul\":8197:8211   */\n      lt\n        /* \"#utility.yul\":8177:8195   */\n      dup2\n        /* \"#utility.yul\":8174:8212   */\n      sub\n        /* \"#utility.yul\":8171:8255   */\n      tag_179\n      jumpi\n        /* \"#utility.yul\":8227:8245   */\n      tag_180\n      tag_81\n      jump\t// in\n    tag_180:\n        /* \"#utility.yul\":8171:8255   */\n    tag_179:\n        /* \"#utility.yul\":7992:8261   */\n      pop\n        /* \"#utility.yul\":7941:8261   */\n      swap2\n      swap1\n      pop\n      jump\t// out\n        /* \"#utility.yul\":8267:8408   */\n    tag_82:\n        /* \"#utility.yul\":8316:8320   */\n      0x00\n        /* \"#utility.yul\":8339:8342   */\n      dup2\n        /* \"#utility.yul\":8331:8342   */\n      swap1\n      pop\n        /* \"#utility.yul\":8362:8365   */\n      dup2\n        /* \"#utility.yul\":8359:8360   */\n      0x00\n        /* \"#utility.yul\":8352:8366   */\n      mstore\n        /* \"#utility.yul\":8396:8400   */\n      0x20\n        /* \"#utility.yul\":8393:8394   */\n      0x00\n        /* \"#utility.yul\":8383:8401   */\n      keccak256\n        /* \"#utility.yul\":8375:8401   */\n      swap1\n      pop\n        /* \"#utility.yul\":8267:8408   */\n      swap2\n      swap1\n      pop\n      jump\t// out\n        /* \"#utility.yul\":8414:8507   */\n    tag_83:\n        /* \"#utility.yul\":8451:8457   */\n      0x00\n        /* \"#utility.yul\":8498:8500   */\n      0x20\n        /* \"#utility.yul\":8493:8495   */\n      0x1f\n        /* \"#utility.yul\":8486:8491   */\n      dup4\n        /* \"#utility.yul\":8482:8496   */\n      add\n        /* \"#utility.yul\":8478:8501   */\n      div\n        /* \"#utility.yul\":8468:8501   */\n      swap1\n      pop\n        /* \"#utility.yul\":8414:8507   */\n      swap2\n      swap1\n      pop\n      jump\t// out\n        /* \"#utility.yul\":8513:8620   */\n    tag_84:\n        /* \"#utility.yul\":8557:8565   */\n      0x00\n        /* \"#utility.yul\":8607:8612   */\n      dup3\n        /* \"#utility.yul\":8601:8605   */\n      dup3\n        /* \"#utility.yul\":8597:8613   */\n      shl\n        /* \"#utility.yul\":8576:8613   */\n      swap1\n      pop\n        /* \"#utility.yul\":8513:8620   */\n      swap3\n      swap2\n      pop\n      pop\n      jump\t// out\n        /* \"#utility.yul\":8626:9019   */\n    tag_85:\n        /* \"#utility.yul\":8695:8701   */\n      0x00\n        /* \"#utility.yul\":8745:8746   */\n      0x08\n        /* \"#utility.yul\":8733:8743   */\n      dup4\n        /* \"#utility.yul\":8729:8747   */\n      mul\n        /* \"#utility.yul\":8768:8865   */\n      tag_185\n        /* \"#utility.yul\":8798:8864   */\n      0xffffffffffffffffffffffffffffffffffffffffffffffffffffffffffffffff\n        /* \"#utility.yul\":8787:8796   */\n      dup3\n        /* \"#utility.yul\":8768:8865   */\n      tag_84\n      jump\t// in\n    tag_185:\n        /* \"#utility.yul\":8886:8925   */\n      tag_186\n        /* \"#utility.yul\":8916:8924   */\n      dup7\n        /* \"#utility.yul\":8905:8914   */\n      dup4\n        /* \"#utility.yul\":8886:8925   */\n      tag_84\n      jump\t// in\n    tag_186:\n        /* \"#utility.yul\":8874:8925   */\n      swap6\n      pop\n        /* \"#utility.yul\":8958:8962   */\n      dup1\n        /* \"#utility.yul\":8954:8963   */\n      not\n        /* \"#utility.yul\":8947:8952   */\n      dup5\n        /* \"#utility.yul\":8943:8964   */\n      and\n        /* \"#utility.yul\":8934:8964   */\n      swap4\n      pop\n        /* \"#utility.yul\":9007:9011   */\n      dup1\n        /* \"#utility.yul\":8997:9005   */\n      dup7\n        /* \"#utility.yul\":8993:9012   */\n      and\n        /* \"#utility.yul\":8986:8991   */\n      dup5\n        /* \"#utility.yul\":8983:9013   */\n      or\n        /* \"#utility.yul\":8973:9013   */\n      swap3\n      pop\n        /* \"#utility.yul\":8702:9019   */\n      pop\n      pop\n        /* \"#utility.yul\":8626:9019   */\n      swap4\n      swap3\n      pop\n      pop\n      pop\n      jump\t// out\n        /* \"#utility.yul\":9025:9085   */\n    tag_86:\n        /* \"#utility.yul\":9053:9056   */\n      0x00\n        /* \"#utility.yul\":9074:9079   */\n      dup2\n        /* \"#utility.yul\":9067:9079   */\n      swap1\n      pop\n        /* \"#utility.yul\":9025:9085   */\n      swap2\n      swap1\n      pop\n      jump\t// out\n        /* \"#utility.yul\":9091:9233   */\n    tag_87:\n        /* \"#utility.yul\":9141:9150   */\n      0x00\n        /* \"#utility.yul\":9174:9227   */\n      tag_189\n        /* \"#utility.yul\":9192:9226   */\n      tag_190\n        /* \"#utility.yul\":9201:9225   */\n      tag_191\n        /* \"#utility.yul\":9219:9224   */\n      dup5\n        /* \"#utility.yul\":9201:9225   */\n      tag_65\n      jump\t// in\n    tag_191:\n        /* \"#utility.yul\":9192:9226   */\n      tag_86\n      jump\t// in\n    tag_190:\n        /* \"#utility.yul\":9174:9227   */\n      tag_65\n      jump\t// in\n    tag_189:\n        /* \"#utility.yul\":9161:9227   */\n      swap1\n      pop\n        /* \"#utility.yul\":9091:9233   */\n      swap2\n      swap1\n      pop\n      jump\t// out\n        /* \"#utility.yul\":9239:9314   */\n    tag_88:\n        /* \"#utility.yul\":9282:9285   */\n      0x00\n        /* \"#utility.yul\":9303:9308   */\n      dup2\n        /* \"#utility.yul\":9296:9308   */\n      swap1\n      pop\n        /* \"#utility.yul\":9239:9314   */\n      swap2\n      swap1\n      pop\n      jump\t// out\n        /* \"#utility.yul\":9320:9589   */\n    tag_89:\n        /* \"#utility.yul\":9430:9469   */\n      tag_194\n        /* \"#utility.yul\":9461:9468   */\n      dup4\n        /* \"#utility.yul\":9430:9469   */\n      tag_87\n      jump\t// in\n    tag_194:\n        /* \"#utility.yul\":9491:9582   */\n      tag_195\n        /* \"#utility.yul\":9540:9581   */\n      tag_196\n        /* \"#utility.yul\":9564:9580   */\n      dup3\n        /* \"#utility.yul\":9540:9581   */\n      tag_88\n      jump\t// in\n    tag_196:\n        /* \"#utility.yul\":9532:9538   */\n      dup5\n        /* \"#utility.yul\":9525:9529   */\n      dup5\n        /* \"#utility.yul\":9519:9530   */\n      sload\n        /* \"#utility.yul\":9491:9582   */\n      tag_85\n      jump\t// in\n    tag_195:\n        /* \"#utility.yul\":9485:9489   */\n      dup3\n        /* \"#utility.yul\":9478:9583   */\n      sstore\n        /* \"#utility.yul\":9396:9589   */\n      pop\n        /* \"#utility.yul\":9320:9589   */\n      pop\n      pop\n      pop\n      jump\t// out\n        /* \"#utility.yul\":9595:9668   */\n    tag_90:\n        /* \"#utility.yul\":9640:9643   */\n      0x00\n        /* \"#utility.yul\":9661:9662   */\n      0x00\n        /* \"#utility.yul\":9654:9662   */\n      swap1\n      pop\n        /* \"#utility.yul\":9595:9668   */\n      swap1\n      jump\t// out\n        /* \"#utility.yul\":9674:9863   */\n    tag_91:\n        /* \"#utility.yul\":9751:9783   */\n      tag_199\n      tag_90\n      jump\t// in\n    tag_199:\n        /* \"#utility.yul\":9792:9857   */\n      tag_200\n        /* \"#utility.yul\":9850:9856   */\n      dup2\n        /* \"#utility.yul\":9842:9848   */\n      dup5\n        /* \"#utility.yul\":9836:9840   */\n      dup5\n        /* \"#utility.yul\":9792:9857   */\n      tag_89\n      jump\t// in\n    tag_200:\n        /* \"#utility.yul\":9727:9863   */\n      pop\n        /* \"#utility.yul\":9674:9863   */\n      pop\n      pop\n      jump\t// out\n        /* \"#utility.yul\":9869:10055   */\n    tag_92:\n        /* \"#utility.yul\":9929:10049   */\n    tag_202:\n        /* \"#utility.yul\":9946:9949   */\n      dup2\n        /* \"#utility.yul\":9939:9944   */\n      dup2\n        /* \"#utility.yul\":9936:9950   */\n      lt\n        /* \"#utility.yul\":9929:10049   */\n      iszero\n      tag_204\n      jumpi\n        /* \"#utility.yul\":10000:10039   */\n      tag_205\n        /* \"#utility.yul\":10037:10038   */\n      0x00\n        /* \"#utility.yul\":10030:10035   */\n      dup3\n        /* \"#utility.yul\":10000:10039   */\n      tag_91\n      jump\t// in\n    tag_205:\n        /* \"#utility.yul\":9973:9974   */\n      0x01\n        /* \"#utility.yul\":9966:9971   */\n      dup2\n        /* \"#utility.yul\":9962:9975   */\n      add\n        /* \"#utility.yul\":9953:9975   */\n      swap1\n      pop\n        /* \"#utility.yul\":9929:10049   */\n      jump(tag_202)\n    tag_204:\n        /* \"#utility.yul\":9869:10055   */\n      pop\n      pop\n      jump\t// out\n        /* \"#utility.yul\":10061:10604   */\n    tag_93:\n        /* \"#utility.yul\":10162:10164   */\n      0x1f\n        /* \"#utility.yul\":10157:10160   */\n      dup3\n        /* \"#utility.yul\":10154:10165   */\n      gt\n        /* \"#utility.yul\":10151:10597   */\n      iszero\n      tag_207\n      jumpi\n        /* \"#utility.yul\":10196:10234   */\n      tag_208\n        /* \"#utility.yul\":10228:10233   */\n      dup2\n        /* \"#utility.yul\":10196:10234   */\n      tag_82\n      jump\t// in\n    tag_208:\n        /* \"#utility.yul\":10280:10309   */\n      tag_209\n        /* \"#utility.yul\":10298:10308   */\n      dup5\n        /* \"#utility.yul\":10280:10309   */\n      tag_83\n      jump\t// in\n    tag_209:\n        /* \"#utility.yul\":10270:10278   */\n      dup2\n        /* \"#utility.yul\":10266:10310   */\n      add\n        /* \"#utility.yul\":10463:10465   */\n      0x20\n        /* \"#utility.yul\":10451:10461   */\n      dup6\n        /* \"#utility.yul\":10448:10466   */\n      lt\n        /* \"#utility.yul\":10445:10494   */\n      iszero\n      tag_210\n      jumpi\n        /* \"#utility.yul\":10484:10492   */\n      dup2\n        /* \"#utility.yul\":10469:10492   */\n      swap1\n      pop\n        /* \"#utility.yul\":10445:10494   */\n    tag_210:\n        /* \"#utility.yul\":10507:10587   */\n      tag_211\n        /* \"#utility.yul\":10563:10585   */\n      tag_212\n        /* \"#utility.yul\":10581:10584   */\n      dup6\n        /* \"#utility.yul\":10563:10585   */\n      tag_83\n      jump\t// in\n    tag_212:\n        /* \"#utility.yul\":10553:10561   */\n      dup4\n        /* \"#utility.yul\":10549:10586   */\n      add\n        /* \"#utility.yul\":10536:10547   */\n      dup3\n        /* \"#utility.yul\":10507:10587   */\n      tag_92\n      jump\t// in\n    tag_211:\n        /* \"#utility.yul\":10166:10597   */\n      pop\n      pop\n        /* \"#utility.yul\":10151:10597   */\n    tag_207:\n        /* \"#utility.yul\":10061:10604   */\n      pop\n      pop\n      pop\n      jump\t// out\n        /* \"#utility.yul\":10610:10727   */\n    tag_94:\n        /* \"#utility.yul\":10664:10672   */\n      0x00\n        /* \"#utility.yul\":10714:10719   */\n      dup3\n        /* \"#utility.yul\":10708:10712   */\n      dup3\n        /* \"#utility.yul\":10704:10720   */\n      shr\n        /* \"#utility.yul\":10683:10720   */\n      swap1\n      pop\n        /* \"#utility.yul\":10610:10727   */\n      swap3\n      swap2\n      pop\n      pop\n      jump\t// out\n        /* \"#utility.yul\":10733:10902   */\n    tag_95:\n        /* \"#utility.yul\":10777:10783   */\n      0x00\n        /* \"#utility.yul\":10810:10861   */\n      tag_215\n        /* \"#utility.yul\":10858:10859   */\n      0x00\n        /* \"#utility.yul\":10854:10860   */\n      not\n        /* \"#utility.yul\":10846:10851   */\n      dup5\n        /* \"#utility.yul\":10843:10844   */\n      0x08\n        /* \"#utility.yul\":10839:10852   */\n      mul\n        /* \"#utility.yul\":10810:10861   */\n      tag_94\n      jump\t// in\n    tag_215:\n        /* \"#utility.yul\":10806:10862   */\n      not\n        /* \"#utility.yul\":10891:10895   */\n      dup1\n        /* \"#utility.yul\":10885:10889   */\n      dup4\n        /* \"#utility.yul\":10881:10896   */\n      and\n        /* \"#utility.yul\":10871:10896   */\n      swap2\n      pop\n        /* \"#utility.yul\":10784:10902   */\n      pop\n        /* \"#utility.yul\":10733:10902   */\n      swap3\n      swap2\n      pop\n      pop\n      jump\t// out\n        /* \"#utility.yul\":10907:11202   */\n    tag_96:\n        /* \"#utility.yul\":10983:10987   */\n      0x00\n        /* \"#utility.yul\":11129:11158   */\n      tag_217\n        /* \"#utility.yul\":11154:11157   */\n      dup4\n        /* \"#utility.yul\":11148:11152   */\n      dup4\n        /* \"#utility.yul\":11129:11158   */\n      tag_95\n      jump\t// in\n    tag_217:\n        /* \"#utility.yul\":11121:11158   */\n      swap2\n      pop\n        /* \"#utility.yul\":11191:11194   */\n      dup3\n        /* \"#utility.yul\":11188:11189   */\n      0x02\n        /* \"#utility.yul\":11184:11195   */\n      mul\n        /* \"#utility.yul\":11178:11182   */\n      dup3\n        /* \"#utility.yul\":11175:11196   */\n      or\n        /* \"#utility.yul\":11167:11196   */\n      swap1\n      pop\n        /* \"#utility.yul\":10907:11202   */\n      swap3\n      swap2\n      pop\n      pop\n      jump\t// out\n        /* \"#utility.yul\":11207:12602   */\n    tag_52:\n        /* \"#utility.yul\":11324:11361   */\n      tag_219\n        /* \"#utility.yul\":11357:11360   */\n      dup3\n        /* \"#utility.yul\":11324:11361   */\n      tag_60\n      jump\t// in\n    tag_219:\n        /* \"#utility.yul\":11426:11444   */\n      0xffffffffffffffff\n        /* \"#utility.yul\":11418:11424   */\n      dup2\n        /* \"#utility.yul\":11415:11445   */\n      gt\n        /* \"#utility.yul\":11412:11468   */\n      iszero\n      tag_220\n      jumpi\n        /* \"#utility.yul\":11448:11466   */\n      tag_221\n      tag_70\n      jump\t// in\n    tag_221:\n        /* \"#utility.yul\":11412:11468   */\n    tag_220:\n        /* \"#utility.yul\":11492:11530   */\n      tag_222\n        /* \"#utility.yul\":11524:11528   */\n      dup3\n        /* \"#utility.yul\":11518:11529   */\n      sload\n        /* \"#utility.yul\":11492:11530   */\n      tag_41\n      jump\t// in\n    tag_222:\n        /* \"#utility.yul\":11577:11644   */\n      tag_223\n        /* \"#utility.yul\":11637:11643   */\n      dup3\n        /* \"#utility.yul\":11629:11635   */\n      dup3\n        /* \"#utility.yul\":11623:11627   */\n      dup6\n        /* \"#utility.yul\":11577:11644   */\n      tag_93\n      jump\t// in\n    tag_223:\n        /* \"#utility.yul\":11671:11672   */\n      0x00\n        /* \"#utility.yul\":11695:11699   */\n      0x20\n        /* \"#utility.yul\":11682:11699   */\n      swap1\n      pop\n        /* \"#utility.yul\":11727:11729   */\n      0x1f\n        /* \"#utility.yul\":11719:11725   */\n      dup4\n        /* \"#utility.yul\":11716:11730   */\n      gt\n        /* \"#utility.yul\":11744:11745   */\n      0x01\n        /* \"#utility.yul\":11739:12357   */\n      dup2\n      eq\n      tag_225\n      jumpi\n        /* \"#utility.yul\":12401:12402   */\n      0x00\n        /* \"#utility.yul\":12418:12424   */\n      dup5\n        /* \"#utility.yul\":12415:12492   */\n      iszero\n      tag_226\n      jumpi\n        /* \"#utility.yul\":12467:12476   */\n      dup3\n        /* \"#utility.yul\":12462:12465   */\n      dup8\n        /* \"#utility.yul\":12458:12477   */\n      add\n        /* \"#utility.yul\":12452:12478   */\n      mload\n        /* \"#utility.yul\":12443:12478   */\n      swap1\n      pop\n        /* \"#utility.yul\":12415:12492   */\n    tag_226:\n        /* \"#utility.yul\":12518:12585   */\n      tag_227\n        /* \"#utility.yul\":12578:12584   */\n      dup6\n        /* \"#utility.yul\":12571:12576   */\n      dup3\n        /* \"#utility.yul\":12518:12585   */\n      tag_96\n      jump\t// in\n    tag_227:\n        /* \"#utility.yul\":12512:12516   */\n      dup7\n        /* \"#utility.yul\":12505:12586   */\n      sstore\n        /* \"#utility.yul\":12374:12596   */\n      pop\n        /* \"#utility.yul\":11709:12596   */\n      jump(tag_224)\n        /* \"#utility.yul\":11739:12357   */\n    tag_225:\n        /* \"#utility.yul\":11791:11795   */\n      0x1f\n        /* \"#utility.yul\":11787:11796   */\n      not\n        /* \"#utility.yul\":11779:11785   */\n      dup5\n        /* \"#utility.yul\":11775:11797   */\n      and\n        /* \"#utility.yul\":11825:11862   */\n      tag_228\n        /* \"#utility.yul\":11857:11861   */\n      dup7\n        /* \"#utility.yul\":11825:11862   */\n      tag_82\n      jump\t// in\n    tag_228:\n        /* \"#utility.yul\":11884:11885   */\n      0x00\n        /* \"#utility.yul\":11898:12106   */\n    tag_229:\n        /* \"#utility.yul\":11912:11919   */\n      dup3\n        /* \"#utility.yul\":11909:11910   */\n      dup2\n        /* \"#utility.yul\":11906:11920   */\n      lt\n        /* \"#utility.yul\":11898:12106   */\n      iszero\n      tag_231\n      jumpi\n        /* \"#utility.yul\":11991:12000   */\n      dup5\n        /* \"#utility.yul\":11986:11989   */\n      dup10\n        /* \"#utility.yul\":11982:12001   */\n      add\n        /* \"#utility.yul\":11976:12002   */\n      mload\n        /* \"#utility.yul\":11968:11974   */\n      dup3\n        /* \"#utility.yul\":11961:12003   */\n      sstore\n        /* \"#utility.yul\":12042:12043   */\n      0x01\n        /* \"#utility.yul\":12034:12040   */\n      dup3\n        /* \"#utility.yul\":12030:12044   */\n      add\n        /* \"#utility.yul\":12020:12044   */\n      swap2\n      pop\n        /* \"#utility.yul\":12089:12091   */\n      0x20\n        /* \"#utility.yul\":12078:12087   */\n      dup6\n        /* \"#utility.yul\":12074:12092   */\n      add\n        /* \"#utility.yul\":12061:12092   */\n      swap5\n      pop\n        /* \"#utility.yul\":11935:11939   */\n      0x20\n        /* \"#utility.yul\":11932:11933   */\n      dup2\n        /* \"#utility.yul\":11928:11940   */\n      add\n        /* \"#utility.yul\":11923:11940   */\n      swap1\n      pop\n        /* \"#utility.yul\":11898:12106   */\n      jump(tag_229)\n    tag_231:\n        /* \"#utility.yul\":12134:12140   */\n      dup7\n        /* \"#utility.yul\":12125:12132   */\n      dup4\n        /* \"#utility.yul\":12122:12141   */\n      lt\n        /* \"#utility.yul\":12119:12298   */\n      iszero\n      tag_232\n      jumpi\n        /* \"#utility.yul\":12192:12201   */\n      dup5\n        /* \"#utility.yul\":12187:12190   */\n      dup10\n        /* \"#utility.yul\":12183:12202   */\n      add\n        /* \"#utility.yul\":12177:12203   */\n      mload\n        /* \"#utility.yul\":12235:12283   */\n      tag_233\n        /* \"#utility.yul\":12277:12281   */\n      0x1f\n        /* \"#utility.yul\":12269:12275   */\n      dup10\n        /* \"#utility.yul\":12265:12282   */\n      and\n        /* \"#utility.yul\":12254:12263   */\n      dup3\n        /* \"#utility.yul\":12235:12283   */\n      tag_95\n      jump\t// in\n    tag_233:\n        /* \"#utility.yul\":12227:12233   */\n      dup4\n        /* \"#utility.yul\":12220:12284   */\n      sstore\n        /* \"#utility.yul\":12142:12298   */\n      pop\n        /* \"#utility.yul\":12119:12298   */\n    tag_232:\n        /* \"#utility.yul\":12344:12345   */\n      0x01\n        /* \"#utility.yul\":12340:12341   */\n      0x02\n        /* \"#utility.yul\":12332:12338   */\n      dup9\n        /* \"#utility.yul\":12328:12342   */\n      mul\n        /* \"#utility.yul\":12324:12346   */\n      add\n        /* \"#utility.yul\":12318:12322   */\n      dup9\n        /* \"#utility.yul\":12311:12347   */\n      sstore\n        /* \"#utility.yul\":11746:12357   */\n      pop\n      pop\n      pop\n        /* \"#utility.yul\":11709:12596   */\n    tag_224:\n      pop\n        /* \"#utility.yul\":11299:12602   */\n      pop\n      pop\n      pop\n        /* \"#utility.yul\":11207:12602   */\n      pop\n      pop\n      jump\t// out\n\n    auxdata: 0xa2646970667358221220004012c7d6252ae23c369c280f456550fad9b8cf9b18c932761c5833ded69fc764736f6c634300081e0033\n}\n",
				"bytecode": {
					"linkReferences": {},
					"object": "6080604052348015600e575f5ffd5b50335f5f6101000a81548173ffffffffffffffffffffffffffffffffffffffff021916908373ffffffffffffffffffffffffffffffffffffffff160217905550670de0b6b3a7640000600181905550610ac58061006a5f395ff3fe608060405234801561000f575f5ffd5b5060043610610060575f3560e01c806313af4035146100645780636cd947ee1461008057806376f1c0c8146100b05780638abdf5aa146100ba5780638da5cb5b146100d8578063fe34bc31146100f6575b5f5ffd5b61007e6004803603810190610079919061046c565b610112565b005b61009a6004803603810190610095919061046c565b610250565b6040516100a79190610507565b60405180910390f35b6100b86102eb565b005b6100c2610389565b6040516100cf919061053f565b60405180910390f35b6100e061038f565b6040516100ed9190610567565b60405180910390f35b610110600480360381019061010b91906106ac565b6103b3565b005b5f5f9054906101000a900473ffffffffffffffffffffffffffffffffffffffff1673ffffffffffffffffffffffffffffffffffffffff163373ffffffffffffffffffffffffffffffffffffffff16146101a0576040517f08c379a00000000000000000000000000000000000000000000000000000000081526004016101979061073d565b60405180910390fd5b5f73ffffffffffffffffffffffffffffffffffffffff168173ffffffffffffffffffffffffffffffffffffffff160361020e576040517f08c379a0000000000000000000000000000000000000000000000000000000008152600401610205906107a5565b60405180910390fd5b805f5f6101000a81548173ffffffffffffffffffffffffffffffffffffffff021916908373ffffffffffffffffffffffffffffffffffffffff16021790555050565b6002602052805f5260405f205f91509050805461026c906107f0565b80601f0160208091040260200160405190810160405280929190818152602001828054610298906107f0565b80156102e35780601f106102ba576101008083540402835291602001916102e3565b820191905f5260205f20905b8154815290600101906020018083116102c657829003601f168201915b505050505081565b5f5f9054906101000a900473ffffffffffffffffffffffffffffffffffffffff1673ffffffffffffffffffffffffffffffffffffffff163373ffffffffffffffffffffffffffffffffffffffff1614610379576040517f08c379a00000000000000000000000000000000000000000000000000000000081526004016103709061073d565b60405180910390fd5b66b1a2bc2ec50000600181905550565b60015481565b5f5f9054906101000a900473ffffffffffffffffffffffffffffffffffffffff1681565b8060025f3373ffffffffffffffffffffffffffffffffffffffff1673ffffffffffffffffffffffffffffffffffffffff1681526020019081526020015f2090816103fd91906109c0565b5050565b5f604051905090565b5f5ffd5b5f5ffd5b5f73ffffffffffffffffffffffffffffffffffffffff82169050919050565b5f61043b82610412565b9050919050565b61044b81610431565b8114610455575f5ffd5b50565b5f8135905061046681610442565b92915050565b5f602082840312156104815761048061040a565b5b5f61048e84828501610458565b91505092915050565b5f81519050919050565b5f82825260208201905092915050565b8281835e5f83830152505050565b5f601f19601f8301169050919050565b5f6104d982610497565b6104e381856104a1565b93506104f38185602086016104b1565b6104fc816104bf565b840191505092915050565b5f6020820190508181035f83015261051f81846104cf565b905092915050565b5f819050919050565b61053981610527565b82525050565b5f6020820190506105525f830184610530565b92915050565b61056181610431565b82525050565b5f60208201905061057a5f830184610558565b92915050565b5f5ffd5b5f5ffd5b7f4e487b71000000000000000000000000000000000000000000000000000000005f52604160045260245ffd5b6105be826104bf565b810181811067ffffffffffffffff821117156105dd576105dc610588565b5b80604052505050565b5f6105ef610401565b90506105fb82826105b5565b919050565b5f67ffffffffffffffff82111561061a57610619610588565b5b610623826104bf565b9050602081019050919050565b828183375f83830152505050565b5f61065061064b84610600565b6105e6565b90508281526020810184848401111561066c5761066b610584565b5b610677848285610630565b509392505050565b5f82601f83011261069357610692610580565b5b81356106a384826020860161063e565b91505092915050565b5f602082840312156106c1576106c061040a565b5b5f82013567ffffffffffffffff8111156106de576106dd61040e565b5b6106ea8482850161067f565b91505092915050565b7f6e6f74206f776e657200000000000000000000000000000000000000000000005f82015250565b5f6107276009836104a1565b9150610732826106f3565b602082019050919050565b5f6020820190508181035f8301526107548161071b565b9050919050565b7f696e76616c6964206164647265737300000000000000000000000000000000005f82015250565b5f61078f600f836104a1565b915061079a8261075b565b602082019050919050565b5f6020820190508181035f8301526107bc81610783565b9050919050565b7f4e487b71000000000000000000000000000000000000000000000000000000005f52602260045260245ffd5b5f600282049050600182168061080757607f821691505b60208210810361081a576108196107c3565b5b50919050565b5f819050815f5260205f209050919050565b5f6020601f8301049050919050565b5f82821b905092915050565b5f6008830261087c7fffffffffffffffffffffffffffffffffffffffffffffffffffffffffffffffff82610841565b6108868683610841565b95508019841693508086168417925050509392505050565b5f819050919050565b5f6108c16108bc6108b784610527565b61089e565b610527565b9050919050565b5f819050919050565b6108da836108a7565b6108ee6108e6826108c8565b84845461084d565b825550505050565b5f5f905090565b6109056108f6565b6109108184846108d1565b505050565b5b81811015610933576109285f826108fd565b600181019050610916565b5050565b601f8211156109785761094981610820565b61095284610832565b81016020851015610961578190505b61097561096d85610832565b830182610915565b50505b505050565b5f82821c905092915050565b5f6109985f198460080261097d565b1980831691505092915050565b5f6109b08383610989565b9150826002028217905092915050565b6109c982610497565b67ffffffffffffffff8111156109e2576109e1610588565b5b6109ec82546107f0565b6109f7828285610937565b5f60209050601f831160018114610a28575f8415610a16578287015190505b610a2085826109a5565b865550610a87565b601f198416610a3686610820565b5f5b82811015610a5d57848901518255600182019150602085019450602081019050610a38565b86831015610a7a5784890151610a76601f891682610989565b8355505b6001600288020188555050505b50505050505056fea2646970667358221220004012c7d6252ae23c369c280f456550fad9b8cf9b18c932761c5833ded69fc764736f6c634300081e0033",
					"opcodes": "PUSH1 0x80 PUSH1 0x40 MSTORE CALLVALUE DUP1 ISZERO PUSH1 0xE JUMPI PUSH0 PUSH0 REVERT JUMPDEST POP CALLER PUSH0 PUSH0 PUSH2 0x100 EXP DUP2 SLOAD DUP2 PUSH20 0xFFFFFFFFFFFFFFFFFFFFFFFFFFFFFFFFFFFFFFFF MUL NOT AND SWAP1 DUP4 PUSH20 0xFFFFFFFFFFFFFFFFFFFFFFFFFFFFFFFFFFFFFFFF AND MUL OR SWAP1 SSTORE POP PUSH8 0xDE0B6B3A7640000 PUSH1 0x1 DUP2 SWAP1 SSTORE POP PUSH2 0xAC5 DUP1 PUSH2 0x6A PUSH0 CODECOPY PUSH0 RETURN INVALID PUSH1 0x80 PUSH1 0x40 MSTORE CALLVALUE DUP1 ISZERO PUSH2 0xF JUMPI PUSH0 PUSH0 REVERT JUMPDEST POP PUSH1 0x4 CALLDATASIZE LT PUSH2 0x60 JUMPI PUSH0 CALLDATALOAD PUSH1 0xE0 SHR DUP1 PUSH4 0x13AF4035 EQ PUSH2 0x64 JUMPI DUP1 PUSH4 0x6CD947EE EQ PUSH2 0x80 JUMPI DUP1 PUSH4 0x76F1C0C8 EQ PUSH2 0xB0 JUMPI DUP1 PUSH4 0x8ABDF5AA EQ PUSH2 0xBA JUMPI DUP1 PUSH4 0x8DA5CB5B EQ PUSH2 0xD8 JUMPI DUP1 PUSH4 0xFE34BC31 EQ PUSH2 0xF6 JUMPI JUMPDEST PUSH0 PUSH0 REVERT JUMPDEST PUSH2 0x7E PUSH1 0x4 DUP1 CALLDATASIZE SUB DUP2 ADD SWAP1 PUSH2 0x79 SWAP2 SWAP1 PUSH2 0x46C JUMP JUMPDEST PUSH2 0x112 JUMP JUMPDEST STOP JUMPDEST PUSH2 0x9A PUSH1 0x4 DUP1 CALLDATASIZE SUB DUP2 ADD SWAP1 PUSH2 0x95 SWAP2 SWAP1 PUSH2 0x46C JUMP JUMPDEST PUSH2 0x250 JUMP JUMPDEST PUSH1 0x40 MLOAD PUSH2 0xA7 SWAP2 SWAP1 PUSH2 0x507 JUMP JUMPDEST PUSH1 0x40 MLOAD DUP1 SWAP2 SUB SWAP1 RETURN JUMPDEST PUSH2 0xB8 PUSH2 0x2EB JUMP JUMPDEST STOP JUMPDEST PUSH2 0xC2 PUSH2 0x389 JUMP JUMPDEST PUSH1 0x40 MLOAD PUSH2 0xCF SWAP2 SWAP1 PUSH2 0x53F JUMP JUMPDEST PUSH1 0x40 MLOAD DUP1 SWAP2 SUB SWAP1 RETURN JUMPDEST PUSH2 0xE0 PUSH2 0x38F JUMP JUMPDEST PUSH1 0x40 MLOAD PUSH2 0xED SWAP2 SWAP1 PUSH2 0x567 JUMP JUMPDEST PUSH1 0x40 MLOAD DUP1 SWAP2 SUB SWAP1 RETURN JUMPDEST PUSH2 0x110 PUSH1 0x4 DUP1 CALLDATASIZE SUB DUP2 ADD SWAP1 PUSH2 0x10B SWAP2 SWAP1 PUSH2 0x6AC JUMP JUMPDEST PUSH2 0x3B3 JUMP JUMPDEST STOP JUMPDEST PUSH0 PUSH0 SWAP1 SLOAD SWAP1 PUSH2 0x100 EXP SWAP1 DIV PUSH20 0xFFFFFFFFFFFFFFFFFFFFFFFFFFFFFFFFFFFFFFFF AND PUSH20 0xFFFFFFFFFFFFFFFFFFFFFFFFFFFFFFFFFFFFFFFF AND CALLER PUSH20 0xFFFFFFFFFFFFFFFFFFFFFFFFFFFFFFFFFFFFFFFF AND EQ PUSH2 0x1A0 JUMPI PUSH1 0x40 MLOAD PUSH32 0x8C379A000000000000000000000000000000000000000000000000000000000 DUP2 MSTORE PUSH1 0x4 ADD PUSH2 0x197 SWAP1 PUSH2 0x73D JUMP JUMPDEST PUSH1 0x40 MLOAD DUP1 SWAP2 SUB SWAP1 REVERT JUMPDEST PUSH0 PUSH20 0xFFFFFFFFFFFFFFFFFFFFFFFFFFFFFFFFFFFFFFFF AND DUP2 PUSH20 0xFFFFFFFFFFFFFFFFFFFFFFFFFFFFFFFFFFFFFFFF AND SUB PUSH2 0x20E JUMPI PUSH1 0x40 MLOAD PUSH32 0x8C379A000000000000000000000000000000000000000000000000000000000 DUP2 MSTORE PUSH1 0x4 ADD PUSH2 0x205 SWAP1 PUSH2 0x7A5 JUMP JUMPDEST PUSH1 0x40 MLOAD DUP1 SWAP2 SUB SWAP1 REVERT JUMPDEST DUP1 PUSH0 PUSH0 PUSH2 0x100 EXP DUP2 SLOAD DUP2 PUSH20 0xFFFFFFFFFFFFFFFFFFFFFFFFFFFFFFFFFFFFFFFF MUL NOT AND SWAP1 DUP4 PUSH20 0xFFFFFFFFFFFFFFFFFFFFFFFFFFFFFFFFFFFFFFFF AND MUL OR SWAP1 SSTORE POP POP JUMP JUMPDEST PUSH1 0x2 PUSH1 0x20 MSTORE DUP1 PUSH0 MSTORE PUSH1 0x40 PUSH0 KECCAK256 PUSH0 SWAP2 POP SWAP1 POP DUP1 SLOAD PUSH2 0x26C SWAP1 PUSH2 0x7F0 JUMP JUMPDEST DUP1 PUSH1 0x1F ADD PUSH1 0x20 DUP1 SWAP2 DIV MUL PUSH1 0x20 ADD PUSH1 0x40 MLOAD SWAP1 DUP2 ADD PUSH1 0x40 MSTORE DUP1 SWAP3 SWAP2 SWAP1 DUP2 DUP2 MSTORE PUSH1 0x20 ADD DUP3 DUP1 SLOAD PUSH2 0x298 SWAP1 PUSH2 0x7F0 JUMP JUMPDEST DUP1 ISZERO PUSH2 0x2E3 JUMPI DUP1 PUSH1 0x1F LT PUSH2 0x2BA JUMPI PUSH2 0x100 DUP1 DUP4 SLOAD DIV MUL DUP4 MSTORE SWAP2 PUSH1 0x20 ADD SWAP2 PUSH2 0x2E3 JUMP JUMPDEST DUP3 ADD SWAP2 SWAP1 PUSH0 MSTORE PUSH1 0x20 PUSH0 KECCAK256 SWAP1 JUMPDEST DUP2 SLOAD DUP2 MSTORE SWAP1 PUSH1 0x1 ADD SWAP1 PUSH1 0x20 ADD DUP1 DUP4 GT PUSH2 0x2C6 JUMPI DUP3 SWAP1 SUB PUSH1 0x1F AND DUP3 ADD SWAP2 JUMPDEST POP POP POP POP POP DUP2 JUMP JUMPDEST PUSH0 PUSH0 SWAP1 SLOAD SWAP1 PUSH2 0x100 EXP SWAP1 DIV PUSH20 0xFFFFFFFFFFFFFFFFFFFFFFFFFFFFFFFFFFFFFFFF AND PUSH20 0xFFFFFFFFFFFFFFFFFFFFFFFFFFFFFFFFFFFFFFFF AND CALLER PUSH20 0xFFFFFFFFFFFFFFFFFFFFFFFFFFFFFFFFFFFFFFFF AND EQ PUSH2 0x379 JUMPI PUSH1 0x40 MLOAD PUSH32 0x8C379A000000000000000000000000000000000000000000000000000000000 DUP2 MSTORE PUSH1 0x4 ADD PUSH2 0x370 SWAP1 PUSH2 0x73D JUMP JUMPDEST PUSH1 0x40 MLOAD DUP1 SWAP2 SUB SWAP1 REVERT JUMPDEST PUSH7 0xB1A2BC2EC50000 PUSH1 0x1 DUP2 SWAP1 SSTORE POP JUMP JUMPDEST PUSH1 0x1 SLOAD DUP2 JUMP JUMPDEST PUSH0 PUSH0 SWAP1 SLOAD SWAP1 PUSH2 0x100 EXP SWAP1 DIV PUSH20 0xFFFFFFFFFFFFFFFFFFFFFFFFFFFFFFFFFFFFFFFF AND DUP2 JUMP JUMPDEST DUP1 PUSH1 0x2 PUSH0 CALLER PUSH20 0xFFFFFFFFFFFFFFFFFFFFFFFFFFFFFFFFFFFFFFFF AND PUSH20 0xFFFFFFFFFFFFFFFFFFFFFFFFFFFFFFFFFFFFFFFF AND DUP2 MSTORE PUSH1 0x20 ADD SWAP1 DUP2 MSTORE PUSH1 0x20 ADD PUSH0 KECCAK256 SWAP1 DUP2 PUSH2 0x3FD SWAP2 SWAP1 PUSH2 0x9C0 JUMP JUMPDEST POP POP JUMP JUMPDEST PUSH0 PUSH1 0x40 MLOAD SWAP1 POP SWAP1 JUMP JUMPDEST PUSH0 PUSH0 REVERT JUMPDEST PUSH0 PUSH0 REVERT JUMPDEST PUSH0 PUSH20 0xFFFFFFFFFFFFFFFFFFFFFFFFFFFFFFFFFFFFFFFF DUP3 AND SWAP1 POP SWAP2 SWAP1 POP JUMP JUMPDEST PUSH0 PUSH2 0x43B DUP3 PUSH2 0x412 JUMP JUMPDEST SWAP1 POP SWAP2 SWAP1 POP JUMP JUMPDEST PUSH2 0x44B DUP2 PUSH2 0x431 JUMP JUMPDEST DUP2 EQ PUSH2 0x455 JUMPI PUSH0 PUSH0 REVERT JUMPDEST POP JUMP JUMPDEST PUSH0 DUP2 CALLDATALOAD SWAP1 POP PUSH2 0x466 DUP2 PUSH2 0x442 JUMP JUMPDEST SWAP3 SWAP2 POP POP JUMP JUMPDEST PUSH0 PUSH1 0x20 DUP3 DUP5 SUB SLT ISZERO PUSH2 0x481 JUMPI PUSH2 0x480 PUSH2 0x40A JUMP JUMPDEST JUMPDEST PUSH0 PUSH2 0x48E DUP5 DUP3 DUP6 ADD PUSH2 0x458 JUMP JUMPDEST SWAP2 POP POP SWAP3 SWAP2 POP POP JUMP JUMPDEST PUSH0 DUP2 MLOAD SWAP1 POP SWAP2 SWAP1 POP JUMP JUMPDEST PUSH0 DUP3 DUP3 MSTORE PUSH1 0x20 DUP3 ADD SWAP1 POP SWAP3 SWAP2 POP POP JUMP JUMPDEST DUP3 DUP2 DUP4 MCOPY PUSH0 DUP4 DUP4 ADD MSTORE POP POP POP JUMP JUMPDEST PUSH0 PUSH1 0x1F NOT PUSH1 0x1F DUP4 ADD AND SWAP1 POP SWAP2 SWAP1 POP JUMP JUMPDEST PUSH0 PUSH2 0x4D9 DUP3 PUSH2 0x497 JUMP JUMPDEST PUSH2 0x4E3 DUP2 DUP6 PUSH2 0x4A1 JUMP JUMPDEST SWAP4 POP PUSH2 0x4F3 DUP2 DUP6 PUSH1 0x20 DUP7 ADD PUSH2 0x4B1 JUMP JUMPDEST PUSH2 0x4FC DUP2 PUSH2 0x4BF JUMP JUMPDEST DUP5 ADD SWAP2 POP POP SWAP3 SWAP2 POP POP JUMP JUMPDEST PUSH0 PUSH1 0x20 DUP3 ADD SWAP1 POP DUP2 DUP2 SUB PUSH0 DUP4 ADD MSTORE PUSH2 0x51F DUP2 DUP5 PUSH2 0x4CF JUMP JUMPDEST SWAP1 POP SWAP3 SWAP2 POP POP JUMP JUMPDEST PUSH0 DUP2 SWAP1 POP SWAP2 SWAP1 POP JUMP JUMPDEST PUSH2 0x539 DUP2 PUSH2 0x527 JUMP JUMPDEST DUP3 MSTORE POP POP JUMP JUMPDEST PUSH0 PUSH1 0x20 DUP3 ADD SWAP1 POP PUSH2 0x552 PUSH0 DUP4 ADD DUP5 PUSH2 0x530 JUMP JUMPDEST SWAP3 SWAP2 POP POP JUMP JUMPDEST PUSH2 0x561 DUP2 PUSH2 0x431 JUMP JUMPDEST DUP3 MSTORE POP POP JUMP JUMPDEST PUSH0 PUSH1 0x20 DUP3 ADD SWAP1 POP PUSH2 0x57A PUSH0 DUP4 ADD DUP5 PUSH2 0x558 JUMP JUMPDEST SWAP3 SWAP2 POP POP JUMP JUMPDEST PUSH0 PUSH0 REVERT JUMPDEST PUSH0 PUSH0 REVERT JUMPDEST PUSH32 0x4E487B7100000000000000000000000000000000000000000000000000000000 PUSH0 MSTORE PUSH1 0x41 PUSH1 0x4 MSTORE PUSH1 0x24 PUSH0 REVERT JUMPDEST PUSH2 0x5BE DUP3 PUSH2 0x4BF JUMP JUMPDEST DUP2 ADD DUP2 DUP2 LT PUSH8 0xFFFFFFFFFFFFFFFF DUP3 GT OR ISZERO PUSH2 0x5DD JUMPI PUSH2 0x5DC PUSH2 0x588 JUMP JUMPDEST JUMPDEST DUP1 PUSH1 0x40 MSTORE POP POP POP JUMP JUMPDEST PUSH0 PUSH2 0x5EF PUSH2 0x401 JUMP JUMPDEST SWAP1 POP PUSH2 0x5FB DUP3 DUP3 PUSH2 0x5B5 JUMP JUMPDEST SWAP2 SWAP1 POP JUMP JUMPDEST PUSH0 PUSH8 0xFFFFFFFFFFFFFFFF DUP3 GT ISZERO PUSH2 0x61A JUMPI PUSH2 0x619 PUSH2 0x588 JUMP JUMPDEST JUMPDEST PUSH2 0x623 DUP3 PUSH2 0x4BF JUMP JUMPDEST SWAP1 POP PUSH1 0x20 DUP2 ADD SWAP1 POP SWAP2 SWAP1 POP JUMP JUMPDEST DUP3 DUP2 DUP4 CALLDATACOPY PUSH0 DUP4 DUP4 ADD MSTORE POP POP POP JUMP JUMPDEST PUSH0 PUSH2 0x650 PUSH2 0x64B DUP5 PUSH2 0x600 JUMP JUMPDEST PUSH2 0x5E6 JUMP JUMPDEST SWAP1 POP DUP3 DUP2 MSTORE PUSH1 0x20 DUP2 ADD DUP5 DUP5 DUP5 ADD GT ISZERO PUSH2 0x66C JUMPI PUSH2 0x66B PUSH2 0x584 JUMP JUMPDEST JUMPDEST PUSH2 0x677 DUP5 DUP3 DUP6 PUSH2 0x630 JUMP JUMPDEST POP SWAP4 SWAP3 POP POP POP JUMP JUMPDEST PUSH0 DUP3 PUSH1 0x1F DUP4 ADD SLT PUSH2 0x693 JUMPI PUSH2 0x692 PUSH2 0x580 JUMP JUMPDEST JUMPDEST DUP2 CALLDATALOAD PUSH2 0x6A3 DUP5 DUP3 PUSH1 0x20 DUP7 ADD PUSH2 0x63E JUMP JUMPDEST SWAP2 POP POP SWAP3 SWAP2 POP POP JUMP JUMPDEST PUSH0 PUSH1 0x20 DUP3 DUP5 SUB SLT ISZERO PUSH2 0x6C1 JUMPI PUSH2 0x6C0 PUSH2 0x40A JUMP JUMPDEST JUMPDEST PUSH0 DUP3 ADD CALLDATALOAD PUSH8 0xFFFFFFFFFFFFFFFF DUP2 GT ISZERO PUSH2 0x6DE JUMPI PUSH2 0x6DD PUSH2 0x40E JUMP JUMPDEST JUMPDEST PUSH2 0x6EA DUP5 DUP3 DUP6 ADD PUSH2 0x67F JUMP JUMPDEST SWAP2 POP POP SWAP3 SWAP2 POP POP JUMP JUMPDEST PUSH32 0x6E6F74206F776E65720000000000000000000000000000000000000000000000 PUSH0 DUP3 ADD MSTORE POP JUMP JUMPDEST PUSH0 PUSH2 0x727 PUSH1 0x9 DUP4 PUSH2 0x4A1 JUMP JUMPDEST SWAP2 POP PUSH2 0x732 DUP3 PUSH2 0x6F3 JUMP JUMPDEST PUSH1 0x20 DUP3 ADD SWAP1 POP SWAP2 SWAP1 POP JUMP JUMPDEST PUSH0 PUSH1 0x20 DUP3 ADD SWAP1 POP DUP2 DUP2 SUB PUSH0 DUP4 ADD MSTORE PUSH2 0x754 DUP2 PUSH2 0x71B JUMP JUMPDEST SWAP1 POP SWAP2 SWAP1 POP JUMP JUMPDEST PUSH32 0x696E76616C696420616464726573730000000000000000000000000000000000 PUSH0 DUP3 ADD MSTORE POP JUMP JUMPDEST PUSH0 PUSH2 0x78F PUSH1 0xF DUP4 PUSH2 0x4A1 JUMP JUMPDEST SWAP2 POP PUSH2 0x79A DUP3 PUSH2 0x75B JUMP JUMPDEST PUSH1 0x20 DUP3 ADD SWAP1 POP SWAP2 SWAP1 POP JUMP JUMPDEST PUSH0 PUSH1 0x20 DUP3 ADD SWAP1 POP DUP2 DUP2 SUB PUSH0 DUP4 ADD MSTORE PUSH2 0x7BC DUP2 PUSH2 0x783 JUMP JUMPDEST SWAP1 POP SWAP2 SWAP1 POP JUMP JUMPDEST PUSH32 0x4E487B7100000000000000000000000000000000000000000000000000000000 PUSH0 MSTORE PUSH1 0x22 PUSH1 0x4 MSTORE PUSH1 0x24 PUSH0 REVERT JUMPDEST PUSH0 PUSH1 0x2 DUP3 DIV SWAP1 POP PUSH1 0x1 DUP3 AND DUP1 PUSH2 0x807 JUMPI PUSH1 0x7F DUP3 AND SWAP2 POP JUMPDEST PUSH1 0x20 DUP3 LT DUP2 SUB PUSH2 0x81A JUMPI PUSH2 0x819 PUSH2 0x7C3 JUMP JUMPDEST JUMPDEST POP SWAP2 SWAP1 POP JUMP JUMPDEST PUSH0 DUP2 SWAP1 POP DUP2 PUSH0 MSTORE PUSH1 0x20 PUSH0 KECCAK256 SWAP1 POP SWAP2 SWAP1 POP JUMP JUMPDEST PUSH0 PUSH1 0x20 PUSH1 0x1F DUP4 ADD DIV SWAP1 POP SWAP2 SWAP1 POP JUMP JUMPDEST PUSH0 DUP3 DUP3 SHL SWAP1 POP SWAP3 SWAP2 POP POP JUMP JUMPDEST PUSH0 PUSH1 0x8 DUP4 MUL PUSH2 0x87C PUSH32 0xFFFFFFFFFFFFFFFFFFFFFFFFFFFFFFFFFFFFFFFFFFFFFFFFFFFFFFFFFFFFFFFF DUP3 PUSH2 0x841 JUMP JUMPDEST PUSH2 0x886 DUP7 DUP4 PUSH2 0x841 JUMP JUMPDEST SWAP6 POP DUP1 NOT DUP5 AND SWAP4 POP DUP1 DUP7 AND DUP5 OR SWAP3 POP POP POP SWAP4 SWAP3 POP POP POP JUMP JUMPDEST PUSH0 DUP2 SWAP1 POP SWAP2 SWAP1 POP JUMP JUMPDEST PUSH0 PUSH2 0x8C1 PUSH2 0x8BC PUSH2 0x8B7 DUP5 PUSH2 0x527 JUMP JUMPDEST PUSH2 0x89E JUMP JUMPDEST PUSH2 0x527 JUMP JUMPDEST SWAP1 POP SWAP2 SWAP1 POP JUMP JUMPDEST PUSH0 DUP2 SWAP1 POP SWAP2 SWAP1 POP JUMP JUMPDEST PUSH2 0x8DA DUP4 PUSH2 0x8A7 JUMP JUMPDEST PUSH2 0x8EE PUSH2 0x8E6 DUP3 PUSH2 0x8C8 JUMP JUMPDEST DUP5 DUP5 SLOAD PUSH2 0x84D JUMP JUMPDEST DUP3 SSTORE POP POP POP POP JUMP JUMPDEST PUSH0 PUSH0 SWAP1 POP SWAP1 JUMP JUMPDEST PUSH2 0x905 PUSH2 0x8F6 JUMP JUMPDEST PUSH2 0x910 DUP2 DUP5 DUP5 PUSH2 0x8D1 JUMP JUMPDEST POP POP POP JUMP JUMPDEST JUMPDEST DUP2 DUP2 LT ISZERO PUSH2 0x933 JUMPI PUSH2 0x928 PUSH0 DUP3 PUSH2 0x8FD JUMP JUMPDEST PUSH1 0x1 DUP2 ADD SWAP1 POP PUSH2 0x916 JUMP JUMPDEST POP POP JUMP JUMPDEST PUSH1 0x1F DUP3 GT ISZERO PUSH2 0x978 JUMPI PUSH2 0x949 DUP2 PUSH2 0x820 JUMP JUMPDEST PUSH2 0x952 DUP5 PUSH2 0x832 JUMP JUMPDEST DUP2 ADD PUSH1 0x20 DUP6 LT ISZERO PUSH2 0x961 JUMPI DUP2 SWAP1 POP JUMPDEST PUSH2 0x975 PUSH2 0x96D DUP6 PUSH2 0x832 JUMP JUMPDEST DUP4 ADD DUP3 PUSH2 0x915 JUMP JUMPDEST POP POP JUMPDEST POP POP POP JUMP JUMPDEST PUSH0 DUP3 DUP3 SHR SWAP1 POP SWAP3 SWAP2 POP POP JUMP JUMPDEST PUSH0 PUSH2 0x998 PUSH0 NOT DUP5 PUSH1 0x8 MUL PUSH2 0x97D JUMP JUMPDEST NOT DUP1 DUP4 AND SWAP2 POP POP SWAP3 SWAP2 POP POP JUMP JUMPDEST PUSH0 PUSH2 0x9B0 DUP4 DUP4 PUSH2 0x989 JUMP JUMPDEST SWAP2 POP DUP3 PUSH1 0x2 MUL DUP3 OR SWAP1 POP SWAP3 SWAP2 POP POP JUMP JUMPDEST PUSH2 0x9C9 DUP3 PUSH2 0x497 JUMP JUMPDEST PUSH8 0xFFFFFFFFFFFFFFFF DUP2 GT ISZERO PUSH2 0x9E2 JUMPI PUSH2 0x9E1 PUSH2 0x588 JUMP JUMPDEST JUMPDEST PUSH2 0x9EC DUP3 SLOAD PUSH2 0x7F0 JUMP JUMPDEST PUSH2 0x9F7 DUP3 DUP3 DUP6 PUSH2 0x937 JUMP JUMPDEST PUSH0 PUSH1 0x20 SWAP1 POP PUSH1 0x1F DUP4 GT PUSH1 0x1 DUP2 EQ PUSH2 0xA28 JUMPI PUSH0 DUP5 ISZERO PUSH2 0xA16 JUMPI DUP3 DUP8 ADD MLOAD SWAP1 POP JUMPDEST PUSH2 0xA20 DUP6 DUP3 PUSH2 0x9A5 JUMP JUMPDEST DUP7 SSTORE POP PUSH2 0xA87 JUMP JUMPDEST PUSH1 0x1F NOT DUP5 AND PUSH2 0xA36 DUP7 PUSH2 0x820 JUMP JUMPDEST PUSH0 JUMPDEST DUP3 DUP2 LT ISZERO PUSH2 0xA5D JUMPI DUP5 DUP10 ADD MLOAD DUP3 SSTORE PUSH1 0x1 DUP3 ADD SWAP2 POP PUSH1 0x20 DUP6 ADD SWAP5 POP PUSH1 0x20 DUP2 ADD SWAP1 POP PUSH2 0xA38 JUMP JUMPDEST DUP7 DUP4 LT ISZERO PUSH2 0xA7A JUMPI DUP5 DUP10 ADD MLOAD PUSH2 0xA76 PUSH1 0x1F DUP10 AND DUP3 PUSH2 0x989 JUMP JUMPDEST DUP4 SSTORE POP JUMPDEST PUSH1 0x1 PUSH1 0x2 DUP9 MUL ADD DUP9 SSTORE POP POP POP JUMPDEST POP POP POP POP POP POP JUMP INVALID LOG2 PUSH5 0x6970667358 0x22 SLT KECCAK256 STOP BLOCKHASH SLT 0xC7 0xD6 0x25 0x2A 0xE2 EXTCODECOPY CALLDATASIZE SWAP13 0x28 0xF GASLIMIT PUSH6 0x50FAD9B8CF9B XOR 0xC9 ORIGIN PUSH23 0x1C5833DED69FC764736F6C634300081E00330000000000 "
				},
				"gasEstimates": {
					"creation": {
						"codeDepositCost": "551400",
						"executionCost": "46963",
						"totalCost": "598363"
					},
					"external": {
						"anyOneCanAccess(string)": "infinite",
						"onlyOwnerCanAccess()": "24447",
						"owner()": "2573",
						"serviceFee()": "2469",
						"setOwner(address)": "26894",
						"userMessages(address)": "infinite"
					}
				},
				"methodIdentifiers": {
					"anyOneCanAccess(string)": "fe34bc31",
					"onlyOwnerCanAccess()": "76f1c0c8",
					"owner()": "8da5cb5b",
					"serviceFee()": "8abdf5aa",
					"setOwner(address)": "13af4035",
					"userMessages(address)": "6cd947ee"
				}
			},
			"storageLayout": {
				"storage": [
					{
						"astId": 3,
						"contract": "sample.sol:ownable",
						"label": "owner",
						"offset": 0,
						"slot": "0",
						"type": "t_address"
					},
					{
						"astId": 5,
						"contract": "sample.sol:ownable",
						"label": "serviceFee",
						"offset": 0,
						"slot": "1",
						"type": "t_uint256"
					},
					{
						"astId": 9,
						"contract": "sample.sol:ownable",
						"label": "userMessages",
						"offset": 0,
						"slot": "2",
						"type": "t_mapping(t_address,t_string_storage)"
					}
				],
				"types": {
					"t_address": {
						"encoding": "inplace",
						"label": "address",
						"numberOfBytes": "20"
					},
					"t_mapping(t_address,t_string_storage)": {
						"encoding": "mapping",
						"key": "t_address",
						"label": "mapping(address => string)",
						"numberOfBytes": "32",
						"value": "t_string_storage"
					},
					"t_string_storage": {
						"encoding": "bytes",
						"label": "string",
						"numberOfBytes": "32"
					},
					"t_uint256": {
						"encoding": "inplace",
						"label": "uint256",
						"numberOfBytes": "32"
					}
				}
			},
			"userdoc": {
				"kind": "user",
				"methods": {},
				"version": 1
			}
		}
	}
}